:1000000000400020F1060000310700003307000027
:1000100000000000000000000000000000000000E0
:100020000000000000000000000000003507000094
:100030000000000000000000370700003907000042
:100040003B0700003B0700003B0700003B070000A8
:100050003B070000000000003B0700003B070000DA
:100060003B0700003B0700003B0700003B07000088
:100070003B0700003B0700003B0700003B07000078
:100080003B0700003B0700003B0700003B07000068
:100090003B0700003B0700003B0700003B07000058
:1000A0003B0700003B0700000000000000000000CC
:1000B0000000000000000000000000000000000040
:1000C00008B5054B054803331B1A062B03D9044B0F
:1000D000002B00D0984708BDB4080020B4080020C9
:1000E000000000000648074908B5091A8910CB0F1F
:1000F0005918491003D0044B002B00D0984708BD75
:10010000B4080020B40800200000000010B5074C1F
:100110002378002B09D1FFF7D3FF054B002B02D02A
:10012000044800E000BF0123237010BDB408002084
:100130000000000094DE000008B5094B002B03D03E
:100140000848094900E000BF08480368002B02D1B5
:10015000FFF7C8FF08BD064B002BF9D09847F7E71B
:100160000000000094DE0000B8080020B008002065
:1001700000000000144B002B00D1124B9D46402282
:1001800092029A1A924600218B460F461148124A53
:10019000121A00F03BFB0D4B002B00D098470C4B84
:1001A000002B00D098470020002104000D000B48D0
:1001B00000F0C4FA00F0F4FA2000290000F0E6F89C
:1001C00000F0C4FA00000800004000200000000019
:1001D00000000000B40800200C0900206D0700009A
:1001E00090B587B000AFF860B9607A60BB687B619A
:1001F0001323FC1800F088F9031C23701323FB1849
:100200001B78002BF4D07B691322BA1812781A706D
:100210000123181CBD4607B090BDC04680B586B00E
:1002200000AFF860B9607A60BB687B6100233B6116
:100230000AE07B691B78181C00F042F97B690133E6
:100240007B613B6901333B613A697B689A42F0D339
:100250007B68181CBD4606B080BDC04680B584B022
:1002600000AF134B181C00F017FB124A0823FB18B1
:10027000101C191C00F022FB0F4B181C00F00CFB8B
:100280000C4A3B1D101C191C00F018FBBB68DAB2AD
:100290007B68D9B20F23FB184A431A700F23FB184F
:1002A0001B78181C00F00CF9BD4604B080BDC04698
:1002B0000CD0000020D0000024D0000080B586B013
:1002C00000AF304B181C122100F08EFAA023DA0583
:1002D000A223DB00D3581A1C80231B0213407B602F
:1002E0007B68002B25D004237B610CE0A023DA057A
:1002F00001217B6999400B1C191CA123DB00D15003
:100300007B6901337B617B690C2BEFDD0D233B6146
:100310000BE0A023DB0501213A6991400A1C111C66
:10032000194A99503B6901333B613B690F2BF0DD62
:1003300024E00423FB600BE0A023DB050121FA6825
:1003400091400A1C111C104A9950FB680133FB6054
:10035000FB680C2BF0DD0D23BB600CE0A023DA055D
:100360000121BB6899400B1C191CA123DB00D15053
:10037000BB680133BB60BB680F2BEFDDBD4606B029
:1003800080BDC04640D000000C05000080B582B0A2
:1003900000AF04237B6015E0A023DA0501217B6810
:1003A00099400B1C191CA323DB00D150A023DB05B3
:1003B00001217A6891400A1C111C204A99507B68DF
:1003C00001337B607B680F2BE6DDA023DB051C4A35
:1003D00000219950A023DA05ED23DB000021D15044
:1003E00000233B6000F030F8FFF738FF00F08CF896
:1003F000031E01D0FFF762FFA023DA05A223DB0072
:10040000D2588023DB04134002D1422000F058F878
:10041000A023DA05A223DB00D25880239B021340DD
:1004200002D1412000F04CF8064B3B603B68013B99
:100430003B603B68002BF9D1D8E7C0460C050000B3
:10044000440700001027000080B500AF164A174B84
:100450001749D1501449A123DB0001225242CA504E
:100460001149A223DB0001225242CA500E4AA023A6
:10047000DB000421D1500C4B01221A60A023DA05C5
:10048000EC23DB000121D150A023DB05094A002128
:100490009950054A084B1821D150034A074B19219E
:1004A000D150BD4680BDC04600200040240500005C
:1004B00000502700640700000C0500001405000030
:1004C00080B582B000AF021CFB1D1A700C4B0122DC
:1004D0009A600B49FB1D1B780A4A8B50C046084A9C
:1004E0008E235B00D358002BF9D0054A8E235B0086
:1004F0000021D150024B0122DA60BD4602B080BD1E
:10050000002000401C05000080B582B000AF0E4BFB
:1005100001221A600C4A84235B00D358002B0DD0B3
:10052000094A84235B000021D150074AA323DB0042
:10053000D258FB1D1A70FB1D1B7800E00023181C0D
:10054000BD4602B080BDC0460020004080B500AF6F
:1005500000F034F8031E06D0124B134A1A60134BF6
:10056000802212021A6000F069F8031E05D0802371
:10057000DA05C123DB000121D15000F085F8031E0C
:100580000ED00B4B1B68012B07D0094B094A1A6090
:10059000C046074B1B68012BFBD1074BC0221A60DA
:1005A000BD4680BD04050040DFFF07C0186C004059
:1005B00000EC06407593000014EC064080B500AFD7
:1005C0001A4B1B68FF221340012B2AD1184B1B68C2
:1005D0000F22134025D1174B1B68F022134006D180
:1005E000154B1B68F022134001D101231AE0114B77
:1005F0001B68F0221340102B06D10F4B1B68F02212
:10060000134001D101230DE00A4B1B68F022134077
:10061000302B06D1084B1B68F022134001D1012377
:1006200000E00023181CBD4680BDC046E00F00F06E
:10063000E40F00F0E80F00F0EC0F00F080B500AF21
:100640000D4B1B68FF221340012B11D10B4B1B6874
:100650000F2213400CD10A4B1B68F0221340402B91
:1006600006D1084B1B68F022134001D1012300E0A2
:100670000023181CBD4680BDE00F00F0E40F00F021
:10068000E80F00F0EC0F00F080B500AF144B1B68D2
:10069000FF221340012B1ED1124B1B680F22134067
:1006A00019D1114B1B68F0221340A02B06D10F4B20
:1006B0001B68F022134001D101230DE00A4B1B6897
:1006C000F0221340D02B06D1084B1B68F0221340B8
:1006D00001D1012300E00023181CBD4680BDC046A7
:1006E000E00F00F0E40F00F0E80F00F0EC0F00F076
:1006F00003210A4802680A430260094802680A4363
:1007000002600849084A094B9B1A03DD043BC8589C
:10071000D050FBDCFFF71AFFFFF72CFD240500404B
:1007200054050040C8DE000000000020B40800208E
:10073000FEE7FEE7FEE7FEE7FEE7FEE708B5011C81
:1007400000220020002303F07FF908BD10B500212E
:10075000041C03F0EFF9044B1868C36B002B00D0A6
:100760009847201C0CF044FC60D0000038B5094BC1
:10077000094CE41AA41009D0084AA518AD00ED18D8
:100780002B68013C9847043D002CF9D10CF038FC53
:1007900038BDC046AC080020B0080020FFFFFF3F76
:1007A00070B50D4E0D4D0024AD1BAD1005D0A3004E
:1007B000F35801349847A542F9D10CF01BFC084EC0
:1007C000084D0024AD1BAD1005D0A300F358013433
:1007D0009847A542F9D170BDA4080020A4080020C4
:1007E000A4080020AC0800200FB400B5064983B06F
:1007F00004AB086804CB8168019300F0B9F803B03A
:1008000008BC04B01847C0462804002070B5830710
:100810003FD0541E002A3BD0CEB2031C032503E078
:10082000621E002C34D0141C01335A1E16702B4249
:10083000F6D1032C24D9FF250D402A0215432A04A2
:1008400015430F2C11D9261C103E360901363601EE
:100850001A1C9B19156055609560D5601032934243
:10086000F8D10F221440032C0AD9261FB6080136EE
:10087000B6001A1C9B1920C29342FCD103221440DB
:10088000002C05D0C9B21C1919700133A342FBD149
:1008900070BD141C031CCCE70FB400B5064983B02F
:1008A00004AB086804CB8168019300F0BDFE03B07F
:1008B00008BC04B01847C046280400200FB400B597
:1008C000064983B004AB086804CB4168019303F088
:1008D0003FF803B008BC04B01847C0462804002005
:1008E000F0B557464E4645464B6EE0B480460F1C69
:1008F00091469B042ED513689A469368002B27D007
:10090000524652680025960852461468002E04DCB0
:1009100015E001350434AE420FD0404621683A1C40
:1009200004F0CEFB431CF4D14A460023936053608D
:100930001CBC90469946A246F0BD4B469B684A4671
:10094000B6009B1B936008229446E244002BD7D14B
:100950000020E9E704F0A2FDE6E7C04608B5936889
:10096000002B02D0FFF7BCFF08BD53600020FBE75F
:10097000F0B55F46444656464D46F0B4B5B00890D3
:10098000039193461C1C0E93002804D0836B0093A4
:10099000002B00D19FE08021039B89019A8993B2AB
:1009A0000B4209D10A4303994B6E8A810093009848
:1009B000CE4B03404B6693B21A076BD5039A12696C
:1009C0000092002A66D01A2213400A2B6ED0049C93
:1009D000059D24AB98461793002346461993189318
:1009E00011930B935B461B78002B01D100F0BAFCEE
:1009F000252B01D100F0B6FC5B4601E0252A3ED054
:100A000001331A78002AF9D15A4699469F1A002FC5
:100A100011D05B463360199B7760FA18189B1992C6
:100A20000093013318930836072B2CDC0B9B9C4654
:100A3000BC4463460B934B461B78002B00D16EE3FE
:100A40004B465F1C002314AAD37101225242069226
:100A500000220A92009210324B469246303294465F
:100A60004032914600213A1C5B78571C1A1C203AF0
:100A7000582A00D96CE29E489200825897465A46FE
:100A800099469F1AC3E7002A01D000F088FC18920B
:100A90004646CBE70898039902F06EFF002811D173
:100AA0001A22039B9B8913400A2B90D1039B0E2291
:100AB0009B5E002B8BDB089803995A46231C00F0A1
:100AC00079FD01E00120404235B03CBC904699469A
:100AD000A246AB46F0BD04F08DFA5CE73A1C042355
:100AE0000098184300903B78BFE74A46009B1343A9
:100AF00000933B783A1CB8E70022101C303A93462A
:100B00009B445A468B46011C8B005B185B000137E7
:100B100099187B1E1B781A1C303A092AF4D90A91BD
:100B20005946A3E714ABD9711023009ABB461A4368
:100B30000092009B9B0600D4F6E107230E9A073231
:100B40009A4301339C46944463460E935368146859
:100B50001D1C002B01DA00F067FC211C012214ABE4
:100B6000DF79069B29430993069B002B03DB802337
:100B7000009898430090002900D09BE2069B002B30
:100B800000D1ACE3012A00D1BBE2022A00D1B5E3D7
:100B9000072342469946B4466E07E0084B46E908EB
:100BA00006430D1C311C2340013A30331370341CB2
:100BB0002943F1D11092009A6646D20700D4D4E3BB
:100BC000302B00D1D1E3109B013B1A1C1093302332
:100BD000137043469B1A0993099B069A0493934208
:100BE00000DA04927B1E9F41049B9C46BC446346F2
:100BF00004930223009A1A400C9202D0049B023301
:100C000004938423009A1A400F9200D0B5E10A9B06
:100C1000049A9F1A002F00DCAFE1199B102F01DC12
:100C200000F082FC334A311C9146102218989246FB
:100C3000129413954E4605E0841C101C0831103F99
:100C4000102F11DD524610334A60421C0E6019937A
:100C50001892072AF0DD002B00D081E1103F002020
:100C600001244146102FEDDCB1460E1C211C129CC4
:100C7000139D4A46FB183260776019931891072933
:100C800000DD55E34A1C083694467AE1BB460E99CE
:100C90001AAA0B6804310E911370002314A9CB71AA
:100CA000013304930993109200230693A1E71023C4
:100CB000009ABB461A430092009B9B0600D4C7E0F3
:100CC00007220E9B07339343013294461C685D68EC
:100CD0009C446246211C0E9200222943002314A842
:100CE000C371069B002709933EE7C046FFDFFFFF65
:100CF00064D0000008D200001023009ABB461A43BB
:100D00000092009B9B0679D507220E9B07339343E5
:100D1000013294461C685D689C446246211C0E9218
:100D200029430122DAE73B786C2B00D1D9E3504606
:100D3000009A024300923A1C97E614AAD171D44A51
:100D4000BB461192009A92066FD507210E9A073280
:100D50008A4301318C4614685568944461460E916B
:100D6000009AD20700D410E3211C02222943B5D0F7
:100D7000302716A84370009B077013430093ADE71C
:100D80000E9B1A1D1B6893460A93002B00DAB0E3F2
:100D90000E923B783A1C68E63B783A1C2B2164E6BD
:100DA0002022009B134300933B783A1C5DE60E9B88
:100DB00014A91A1D1B68914610931A1C0023BB46E8
:100DC000CB71002A00D1B6E3069B002B00DA98E332
:100DD000109F0021381C1A1C05F0B8F8002800D11B
:100DE000C6E3C31B099314ABDF794B460E93002374
:100DF0000693F1E6009BBB469B0685D4009BDB0671
:100E000003D4009B5B0600D560E30E9B1C68043393
:100E100000250E930122211C60E714AAD1719D4A7E
:100E2000BB461192009A92068FD4009AD20600D542
:100E3000AFE2009A520600D4ABE20E9A0025148865
:100E400004320E928CE7009BBB469B0600D537E729
:100E5000009BDB0603D4009B5B0600D539E30E9BA9
:100E60001C68043300250E930022211C36E70E9ADD
:100E7000BB46131C04330E9302231468009A00250A
:100E80001A430092302216AB1A7048325A70814BC6
:100E9000763A1193211C21E714ABD971009BBB4614
:100EA0009B0600D4DDE20E990B9A0B681A60D217EC
:100EB0005A600B1C04330E9394E53A1C3B780029CE
:100EC00000D0D2E52031D0E53B787A1C2A2B00D126
:100ED00058E33020404283469B445846171C00226A
:100EE000092811D88B46111C021C8B005B185B0073
:100EF0000137D1187B1E1B781A1C303A092AF4D905
:100F00000A1E594600DAE7E20692AFE56246009B08
:100F1000134300933B783A1CA7E514ABD971009BAF
:100F2000BB469B0600D508E6009BDB0600D4B1E279
:100F30000E9A136804931C1C0432DB171D1C0E92BE
:100F400007E6012300983A1C184300903B788CE593
:100F500014AABB46D171002B00D1E0E01AAA9BE68F
:100F60000898039917AAFFF7BBFC002800D0DFE020
:100F70001898199B441C414661E61899199B4A1C14
:100F8000944614AAD279002A10D014AA07323260EB
:100F9000012272606246013319931892072A00DD1C
:100FA00085E10122914661460836CC440C9A002A1C
:100FB0000FD016AA32600222726062460233199381
:100FC0001892072A00DD82E1012291466146083627
:100FD000CC440F9A802A00D120E1069A0998171A6A
:100FE000002F34DD2C4A9146102F22DD1022301CB8
:100FF0009246069407954E4605E08C1C111C08305D
:10100000103F102F10DD5246103342604A1C06601C
:1010100019931892072AF0DD002B3FD1103F0124CD
:1010200000214046102FEEDCB146061CA446069C6B
:10103000079D4A4632606246DB1977601993189221
:10104000072A00DD7BE0012291460836CC44109A45
:101050003260099A98186346726019901893072BAA
:1010600079DD002800D085E1009B18905B0700D552
:1010700070E1049B0A9A934200DA25E20B9A9446A7
:101080009C4463460B93002346461893AAE4C0464B
:10109000D8D10000ECD10000C8D100000898039915
:1010A00017AAFFF71DFC002842D11899199B4C1C68
:1010B0004046A5E7012A00D067E5002D01D1092CA3
:1010C0001FD9331C46469946201C291C0A2200239E
:1010D00009F046FE013E30323270201C291C0023EC
:1010E0000A2209F03DFE031C041C0D1C0B43EBD12E
:1010F0004B46B14642461E1C4B461093D31A0993E9
:101100006AE5231C27221AA930338B54183214ABFA
:101110009C46434662449B1A099310925CE5199BD6
:101120000093002B04D00898039917AAFFF7D8FB67
:10113000039B9B895B0600D5C4E40B98C4E4002B99
:1011400000D060E143460998109A58601A60012364
:10115000464619901893331C0833009A52073BD522
:101160000A9A0499571A002F36DD102F00DCF2E19D
:10117000D34A1899914610260094019505E08C1CDD
:10118000111C0833103F102F10DDCD4A10301A60AB
:101190004A1C5E6019901892072AF0DD002831D1B0
:1011A000103F012400214346102FEEDCA446009C92
:1011B000019D4A4684C36346C01919901893072BB2
:1011C0000ADD002800D154E70898039917AAFFF711
:1011D00087FB0028ACD11998049B0A9A934200DA45
:1011E000131C0B9A94469C4463460B93002800D131
:1011F00049E70898039917AAFFF772FB002800D166
:1012000041E795E70898039917AAFFF769FB0028BB
:101210008ED1189919984C1C4346B3E70A9A049842
:10122000171A002F00DCD8E6102F00DC9CE1A54A3D
:10123000301C914610220C940D9592464E4605E0C6
:101240008C1C111C0830103F102F10DD524610333B
:1012500042604A1C066019931892072AF0DD002BA1
:1012600018D1103F012400214046102FEEDCB1467A
:10127000061C201C0C9C0D9D4A46DB1932607760D1
:1012800019931890072800DDB5E0421C08369446F3
:10129000011CA2E60898039917AAFFF721FB002872
:1012A00000D045E71899199B4C1C4046CBE7002B12
:1012B00000D084E00C9A002A7CD0424616AB136022
:1012C00002235360013B9C46464601337CE6002BDB
:1012D00000D082E0012200219446464679E643464A
:1012E0001093002A00D077E4009BDB0700D473E45E
:1012F000302127231AAAD1543F2208E742460F2063
:10130000B446B946119F031C2340FB5C2E072109FC
:10131000013A0E4313702B091D1C331C341C2B4344
:10132000F1D143469B1A66464F461092099353E407
:10133000002B00D0B6E014AAD279002A00D183E0B5
:10134000434614AA07321A60012342469C46536062
:10135000464626E60A9A04994346571A002F00DDAE
:1013600003E786E6D946FFF766FB4346109A9B1AC9
:10137000099331E40898039917AAFFF7B1FA0028F6
:1013800000D0D5E619984346E7E6211C02222943FE
:10139000A4E40E9A0025146804320E92E0E4089842
:1013A000039917AAFFF79CFA002800D0C0E646462A
:1013B000FFF73CFB013200219446464609E60898B7
:1013C000039917AAFFF78CFA002800D0B0E6189905
:1013D000199B4A1C94464646E8E50898039917AAC3
:1013E000FFF77EFA002800D0A2E61899199B4A1C44
:1013F00094464646EDE5002B00D087E0012200210F
:1014000094464646E9E50898039917AAFFF768FA53
:10141000002800D08CE601218946189A199B069273
:101420004A449446464612E6221C2B1C0025544290
:101430009D412D23211C14AAD371069B2D270993AE
:1014400001222943FFF790FB013294460C9A0021B8
:101450004646002A00D1C0E516AB33600223736014
:10146000B2E5009BDB060CD4009B5B0609D5694600
:101470000E9B898D1A680433009211800E93FFF73A
:10148000B1FA0E9A0B9913681960131C04330E936A
:10149000FFF7A8FA009B0E9A5B0600D449E50021ED
:1014A000535E48E50898039917AAFFF719FA002830
:1014B00000D03DE61899199B4A1C9446464660E5C3
:1014C00008D20000C8D10000131CD7E50E9B1C8871
:1014D0009DE40E9B1C88C4E4012252420692FFF751
:1014E000C5FA2020009B7A1C034300937B78FFF70A
:1014F000BCFA0A9B3A1C5B420A935B460E93FFF7C9
:10150000EEFA109805F0F6FD09906CE4089803993E
:1015100017AAFFF7E5F9002800D009E61899199BEA
:101520004A1C9446464658E5189A1292511C1E4A87
:101530009146FFF79EFB069F062F00D90627FB4327
:101540003A1CDB171A404B460E93184B099704922E
:101550001093FFF7A9FB01218946189A00924A448B
:101560009446114A914624E6114A6046914683E624
:1015700014ABDF794B460E93069B09930023069329
:10158000FFF72AFB0E9B181D1B680693002B03DB3D
:101590007B780E90FFF769FA0E90012040427B782D
:1015A0000690FFF762FAC04608D2000000D20000A1
:1015B000C8D1000070B5061C02201A4CA5440C1CB2
:1015C0008989814368468181616E1991E189C18170
:1015D000E169301C0791616A09911AA9009104918F
:1015E0008021C90002910591002106916946FFF70B
:1015F000BFF9051E05DB301C694603F051FC0028CD
:101600000CD16B469B895B0603D54023A28913430B
:10161000A381281C8D23DB009D4470BD01256D42F4
:10162000EFE7C04698FBFFFFF0B544464D465F46E6
:101630005646F0B4C3B08146884609921C1C0D93EF
:1016400004F01CF90368181C199305F053FD4B4670
:101650001A90002B03D09B6B002B00D1A6E04346D1
:1016600080219A89890193B20B4209D10A434346EA
:1016700041469A81496EBD4B0B4041464B6693B241
:101680001A075AD542461269002A56D01A22134028
:101690000A2B5ED032AB25930023CA46C34625AE43
:1016A000B360736016931793189332AF10931B9324
:1016B0000B93099C2378002B00D17BE0252B02D1D2
:1016C00078E0252B03D001342378002BF9D1099B36
:1016D000E51A10D0099B7D603B60B368EB18B360DE
:1016E000736801337360072B48DC08370B9B9C46FB
:1016F000AC4463460B932378002B01D100F0EFFF3D
:1017000001200023082516A94042CB7780460021FE
:101710000020AC467835621C6378A94640240A90C4
:10172000079008912030511C1A1C203A582A00D9E1
:1017300004E38F4D9200AA5897464846414602F06E
:101740001BF9002811D143461A229B8913400A2B0A
:10175000A0D143460E229B5E002B9BDB48464146B0
:10176000099A231C01F0BEF901E00120404243B078
:101770003CBC90469946A246AB46F0BD5046594601
:10178000321CFFF7EBF8002809D132AFAEE7504624
:101790005946321CFFF7E2F8002800D1A5E3D846ED
:1017A00043469B895B06E0D40B98E0E7484603F08C
:1017B00021FC54E7099C9EE70A1C0423079D1D4356
:1017C00007950B78AFE70B784A1C2A2B01D101F063
:1017D00060F91D1C303D111C0022092D12D8131C6C
:1017E0002A1C9D00EB185B000131D3184A1E1578A6
:1017F0002A1C303A092AF4D91A1C2B1C002A01DAB7
:1018000000F09EFF90468FE74A46079B13430793DD
:101810000B780A1C87E700221D1C131C303D9A0020
:101820000131D3184A1E12785B005B19151C303D3C
:10183000092DF4D90A93131C76E70991089914939A
:1018400016ABD9771023079A1A430792079B9B067A
:1018500000D48CE107230D9A07329A4301339C464A
:10186000944463460D93536812680F930E92002BB5
:1018700001DA00F00AFE0E980F9916ABDD7F4346A1
:10188000021C139301230A434146002903DB8021F4
:10189000079888430790002A00D078E34246002A40
:1018A00001D100F06CFC012B00D1A1E332AA022B84
:1018B00001D100F099FC0E980F9907239C464346EE
:1018C000A946B84608934F07C5086346CC082F437E
:1018D000211C3C1C0340013A30331370381C0C436C
:1018E000F1D10E900F9111920899079A47464D46F3
:1018F0008846D20701D400F0DFFC302B01D100F084
:10190000DBFC119B32A9013B1A1C1193302313708D
:101910008B1A0C930C9A131E434500DA4346089326
:1019200000231593002D02D0089B01330893022356
:10193000079A1A40914602D0089B023308938423E9
:10194000079A1A40129200D00AE20A9B089A9C1A3F
:10195000002C00DC04E2B2687368064D102C28DD10
:1019600010218846391C57460AE0C046FFDFFFFFBA
:1019700018D20000A0D30000103C0831102C16DD56
:101980004046103201330D604860B2607360072B2F
:10199000F2DD381C5946321CFEF7E0FF002800D06B
:1019A000FDE6103CB268736832A9102CE8DCBA4638
:1019B0000F1C7C600133A4183D60B4607360072B7A
:1019C00001DD00F07FFC16AB0837DD7FC9E107229F
:1019D00009910899149316ABD9770D9B45460733A7
:1019E0009343013294469C4462460D921A681792C2
:1019F0005B6817981893189905F092FA012801D09E
:101A000000F058FD179818990022002309F080F97A
:101A1000002801D000F070FF16ABDD7F149B472B30
:101A200001DC00F089FECB4B11938023079A9A4387
:101A3000079200F06DFE6246079B134307930B78F5
:101A40000A1C70E614931023079A09911A4307920F
:101A5000079B9B0600D45FE107220D9B073393434E
:101A6000013294469C4462465C681B68181C211C29
:101A70000D92021C00230E900F912243002116A804
:101A8000C177414600251391FEE614931023079A6F
:101A900009911A430792079B9B0600D424E1072271
:101AA0000D9B07339343013294469C4462465C6825
:101AB0001B68181C0D92211C021C0E900F91012313
:101AC0002243DBE709910899149316ABD977A24B0F
:101AD0001093079B9B0600D4D6E007220D9B07338B
:101AE0009343013294469C4462465C681B680E93A3
:101AF0000F94079B0D92DB0700D4D8E00E9B0F9C40
:101B00001A1C02232243B9D030201EA90870502489
:101B10006846001900784870079919430791ADE7A6
:101B200009910D990B1C04330D9300230A680F9340
:101B30000E92079A02331A43079230221EAB1A7094
:101B400048325A70854B149210930E9A022395E7EF
:101B5000079B0A1C034307930B78E4E50991089956
:101B6000149316ABD977079B9B0600D572E6079BAB
:101B7000DB0601D400F027FD0D9A136808930E933D
:101B80000432DB170F930D9271E6079B0A1C234367
:101B900007930B78C7E50B786C2B01D100F0E9FDBA
:101BA0001025079A2A4307920A1CBCE50991089957
:101BB00016ABD977079B9B0601D400F011FD0D9958
:101BC0000B9A0B681A60D2175A600B1C04330D93E2
:101BD0006FE509910D9914930B68043128AA0D91B2
:101BE0001370002316A9CB77013308930C930023BD
:101BF000002513931593119299E6089B002B01D0B1
:101C000000F007FD0B780A1C202108918BE50123C9
:101C1000079A1A4307920B780A1C84E514930D9BCC
:101C200009911C1D1B6816A91A1C11930023CB7760
:101C3000002A01D100F032FE43461198002B01DA50
:101C400000F0C4FD0021424604F080F9002801D1D3
:101C500000F0ADFE119BC31A1A1C0C93DB43DB177B
:101C60001A40002316A9CD7F08920D941393159363
:101C700058E609910899149316ABD977374B10930E
:101C8000079B9B0600D528E7079BDB0604D4079B30
:101C90005B0601D500F048FD0D9B1A680E920022EC
:101CA00004330D93079B0F92DB0700D526E70E98B0
:101CB0000F99021C02230A43E0E60D9B1D1D1B68C1
:101CC0000A93002B01DA00F04DFD0B780D950A1CEC
:101CD00029E50B780A1C2B21089124E51493079B16
:101CE00009919B0600D5DAE6079BDB0604D4079B27
:101CF0005B0601D500F01CFD0D9B1A680E920022B8
:101D000004330F920D930E9A0123B7E61493079BA9
:101D100009919B0600D59FE6079BDB0604D4079B31
:101D20005B0601D500F0FCFC0D9B1A680E920022A8
:101D300004330F920D930E9A00239FE609910899A0
:101D400016AA1493D177002B01D100F0C8FC28AA61
:101D500046E7C04690D30000D8D10000ECD1000087
:101D6000B468002D0FD016AA1F23944663443B602D
:101D700001237B60736801340133B4607360072B07
:101D800000DD13E208374B46002B0CD01EAB3B6046
:101D900002237B60736802340133B4607360072BE5
:101DA00000DD0FE20837129B802B00D189E1139BE5
:101DB0000C9A9D1A002D31DDCA4A73689046102D89
:101DC00021DD10229146221C444603E0103D0837D5
:101DD000102D16DD4946103201333C607960B26047
:101DE0007360072BF2DD50465946321CFEF7B6FDF4
:101DF000002800D0D3E4103DB268736832AF102DD4
:101E0000E8DCA046141C4246641901333A607D6048
:101E1000B4607360072B00DDBCE10837079BDB056E
:101E200000D5F3E0119B3B600C9B9C467B60736884
:101E300064440133B4607360072B00DD9BE0083716
:101E4000079B5B0744D50A9B089A9B1A9846002B70
:101E50003EDD102B01DC00F034FD1022A24D914636
:101E60007368221C4446A846554603E0103C0837D8
:101E7000102C17DD9C4910323960494601337960D6
:101E8000B2607360072BF1DD281C5946321CFEF747
:101E900065FD002800D082E4103CB268736832AF60
:101EA000102CE7DCAA464546A046141C4246444492
:101EB00001333D607A60B4607360072B08DD5046E3
:101EC0005946321CFEF74AFD002800D067E4B4688A
:101ED000089B0A9A934200DA131C0B9A94469C447E
:101EE00063460B93002C00D051E4002332AF7360A3
:101EF000FFF7DFFB169B012B00DC23E1119B013474
:101F00003B6001237B607368B4605D1C7560072DC6
:101F100000DD86E20837199B01353B601A9B75602E
:101F20009C4664447B60B460072D00DD86E2083780
:101F3000179818990022002308F0E4FE002800D02A
:101F4000CEE1169B119A013B0132E41801353A604B
:101F50007B60B4607560072D00DD03E1083721ABBD
:101F60003B601B9B01359C4664447B60B46075609C
:101F7000072D00DC63E750465946321CFEF7EEFCA5
:101F8000002801D0FFF70BFCB46832AF58E7012BF3
:101F900000D08BE40F9B002B02D10E9B092B27D97D
:101FA000434632AC0893B846A946271C0E9C0F9DA9
:101FB000201C291C0A22002308F0D2FE013F3032E7
:101FC0003A70201C291C00230A2208F0C9FE031CB9
:101FD000041C0D1C0B43EBD10E940F953C1C089B6D
:101FE0004746984632AB1B1B4D4611940C9391E427
:101FF00027220E9B28A930338B54483216AB9C46BF
:1020000032AB62449B1A0C93119283E4149B652BB0
:1020100000DC6FE7179818990022002308F072FE81
:10202000002800D1FEE0314B01343B6001237B608E
:102030007368B46001337360072B00DDFBE208377F
:102040001F9B169A934203DB079BDB0700D4F7E63E
:10205000199B3B601A9B9C467B6073686444013308
:10206000B4607360072B00DD8AE30837169B5D1EA2
:10207000002D00DCE4E61B4A73689046102D00DC5E
:102080005CE110229146221C444604E00837103DD2
:10209000102D00DC50E14946103201333C6079607C
:1020A000B2607360072BF1DD50465946321CFEF7D3
:1020B00055FC002801D0FFF772FBB268736832AF9D
:1020C000E5E70A9B089A9D1A002D00DC6FE6054A99
:1020D00073689046102D29DD10229146221C44463B
:1020E0000AE0C0467CD30000A0D300009CD30000CF
:1020F000103D0837102D17DD4946103201333C6082
:102100007960B2607360072BF2DD50465946321C8D
:10211000FEF724FC002801D0FFF741FB103DB26818
:10212000736832AF102DE7DCA046141C42466419D8
:1021300001333A607D60B4607360072B00DD98E185
:10214000083734E60123079A134200D0D6E67B60B5
:102150007368119A01345D1C3A60B4607560072D94
:1021600000DCFBE650465946321CFEF7F7FB002820
:1021700001D0FFF714FBB468756832AFEFE6002BAF
:102180002CD1079BDB0729D53021272328AAD1543E
:102190006F2233E750465946321CFEF7DFFB00281A
:1021A00001D0FFF7FCFAB46832AF37E65046594623
:1021B000321CFEF7D3FB002801D0FFF7F0FAB46819
:1021C00032AFE0E550465946321CFEF7C7FB002807
:1021D00001D0FFF7E4FAB46832AFE4E500230C93D2
:1021E00032AB1193FFF796FB0F20BC46A9460E9C1D
:1021F0000F9D031C10992340CB5C2F072109013A46
:102200000F4313702B091D1C3B1C3C1C2B43F0D1AE
:1022100032AB9B1A0E940F9567464D4611920C9364
:10222000FFF778FB1F9D002D00DC10E2119B169A32
:10223000191C9446159B61440C91151E9D4200DDAE
:102240001D1C002D0BDD119B64193B6073687D60C4
:102250000133B4607360072B00DDECE20837EB4319
:10226000DB171D40159B5D1B002D7DDDDB4A736870
:102270009046102D00DCD2E110229146221C4446EB
:1022800004E00837103D102D00DCC6E1494610324D
:1022900001333C607960B2607360072BF1DD50461A
:1022A0005946321CFEF75AFB002801D0FFF777FA97
:1022B000B268736832AFE5E7119A32AB9B1A0C93A0
:1022C000FFF728FB50465946321CFEF747FB002813
:1022D00001D0FFF764FA16ABDD7FB46832AF40E59A
:1022E000169B013B9946002B00DC38E6102B00DCE6
:1022F000B1E0BA4B984608E0083710235B429C4691
:10230000E1444B46102B00DCA7E043463B60102322
:10231000103401357B60B4607560072DECDD5046EC
:102320005946321CFEF71AFB002801D0FFF737FA96
:10233000B468756832AFE0E7A046141C42466419E1
:1023400001333A607D60B4607360072B00DC76E592
:1023500011E650465946321CFEF700FB002801D01A
:10236000FFF71DFAB46832AF159A119B9446634487
:102370009846169A1F9B934244DB079AD20741D492
:1023800041460C9A521A1699CB1A1D1E954200DD31
:10239000151C002D0BDD42463A607268641901324B
:1023A0007D60B4607260072A00DD68E20837EA43A6
:1023B000D21715405D1B002D00DC41E5874A73688C
:1023C0009046102DBADD10229146221C444603E0AF
:1023D0000837103D102DAFDD4946103201333C6007
:1023E0007960B2607360072BF2DD50465946321CAB
:1023F000FEF7B4FA002801D0FFF7D1F9B26873688C
:1024000032AFE6E7199A3A601A9A94467A6072688F
:1024100064440132B4607260072A00DD22E20837AA
:10242000AEE750465946321CFEF798FA002801D014
:10243000FFF7B5F9B468756832AF6CE55046594698
:10244000321CFEF78BFA002801D0FFF7A8F9B46818
:10245000756832AF6CE5614B984643463B604B462E
:102460004C4401357B60B4607560072D00DC75E578
:1024700078E650465946321CFEF770FA002801D023
:10248000FFF78DF9B46832AF91E40E990F9A0024EA
:102490004B429441191C2D2316A8221CC377081CFB
:1024A00043460E910F92021C13932D2501232243C4
:1024B000FFF7EAF91798189904F032FD002800D1C7
:1024C0001AE14346013300D1B7E22023149A9A431C
:1024D0000C92472A00D175E28023079A5B001A43C9
:1024E000189B1292002B00DA8EE2179A984600236E
:1024F00091461393149C662C00D16EE1462C00D1BA
:102500006BE10C9B5046453B594259416B181A1CD4
:102510000893022300931FAB029320AB039323ABDA
:10252000019204934A46434601F034FC1190672C13
:1025300002D0472C00D060E1119A089B9446634476
:102540001C1C079BDB0700D48AE200234846414657
:10255000002208F0D7FB231C002809D1239B9C42B2
:1025600006D930215A1C23921970239B9C42F9D81A
:10257000119A9B1A16930C9B472B00D1A5E1149B33
:10258000652B00DCA4E2149B662B00D15BE21F9B51
:102590001593169B159A934200DD40E2079BDB07DB
:1025A00000D56AE2D343DB1713400C92139A002A3A
:1025B00000D096E10893129B16AA07930023D57FBB
:1025C0001393FFF7AFF9079B0D9A5B0601D4FFF752
:1025D000D4FA0021535EFFF7D2FAC0467CD3000044
:1025E000079BDB060CD4079B5B0609D569460D9B50
:1025F000898D1A680433079211800D93FFF759F8FB
:102600000D9A0B9913681960131C04330D93FFF78F
:1026100050F80B780A1CFFF786F8A046141C4246B7
:10262000641901333A607D60B4607360072B00DD8C
:102630008FE6083798E650465946321CFEF78EF969
:10264000002801D0FFF7ABF8B46832AFF8E4E04BF4
:1026500001343B6001237B607368B46001337360B5
:10266000072B72DC0837002D07D1169B002B04D1F5
:10267000079BDB0701D4FFF7E3FB199B3B601A9B29
:10268000E2187B607368B26001337360072B00DD72
:10269000ACE108376D42002D00DC89E0CD49102403
:1026A0008846102D05DCD2E00837103D102D00DCE7
:1026B000CDE041461032013339607C60B260736016
:1026C000072BF1DD50465946321CFEF747F900282A
:1026D00001D0FFF764F8B268736832AFE5E7B3681A
:1026E000D846002B01D1FFF75BF850465946321C03
:1026F000FEF734F9FFF754F8149B472B00DDEDE0AB
:10270000B54B11938023079A9A4316ABDD7F07924E
:10271000032308930C93002313931593FFF702F9F7
:102720000D9B1A88FFF702FB0D9B1A88FFF7B6FA7C
:102730000D9B1A88FFF7E2FAA84B1193FFF775F982
:10274000012252429046FEF7EFFF50465946321C96
:10275000FEF704F9002801D0FFF721F81F9DB468A7
:1027600032AF80E70A9B0A1C5B420A930D95FFF784
:1027700024F8079B4A1C034307934B78FEF7D3FFCB
:1027800050465946321CFEF7E9F8002801D0FFF701
:1027900006F8B46832AF69E450465946321CFEF779
:1027A000DDF8002801D0FEF7FAFFB268736832AF97
:1027B0001199013339601699736054187960B460C7
:1027C000072B01DCFFF73BFBFFF7D5FB04F092FC86
:1027D000021C0C90031CFFF741FA032300931FAB6C
:1027E000029320AB039323AB0493019550464A46D2
:1027F000434601F0CFFA08951190089A119B944630
:1028000063441C1C0C9B462B00D09EE6119B1B783E
:10281000302B02D01F9BE41897E648464146002221
:10282000002308F06FFA0028F4D10123089A9B1ABC
:102830001F93E41889E650465946321CFEF78EF87D
:10284000002801D0FEF7ABFFB46832AF07E5414680
:102850005219013339607D60B2607360072B9BDCD5
:102860000837A5E750465946321CFEF777F800288E
:1028700001D0FEF794FF1F9BB46832AF80E550464D
:102880005946321CFEF76AF8002801D0FEF787FF90
:10289000169B1F9AB4689B1A32AF88E540460628FB
:1028A00000D90620C343021CDB171A4000231393F0
:1028B00015934B4B0C9008920D9400251193FFF744
:1028C00036F87368474DFFF7F1FA1F9CE31C19DBDC
:1028D000A54217DB6723159414935AE6424B1193D4
:1028E00010E70893129B2D220793002316A9CA779D
:1028F0002D251393FFF718F82D2316AAD3772D252E
:10290000FFF78CF8149B023B14936A46502152182F
:10291000127821AB013C1F9498461A70002C00DA03
:10292000CAE02B2342465370092C00DC9AE016AA19
:102930003B239446634499461D1C201C0A2108F041
:10294000C5F9013D30312970201C0A2108F0D8F862
:10295000041E092CF1DC30346A1EE4B214704A45BE
:1029600000D3B0E0711B4346414400E014789C70F2
:10297000013301328B42F9D116AA94462E236344C7
:102980009C46751B654443461699EB1A0A1C9C46E7
:1029900062441B930C92012972DD0C9B01331A1CBB
:1029A0000C93DB43DB17134000221592FEE516ABB8
:1029B000DD7F434608930C9300230D9413931593E6
:1029C000FEF7B0FF002D00D086E5012584E5C04666
:1029D0009CD300007CD3000094D300008CD3000073
:1029E00000D20000A0D3000098D300005046594602
:1029F000321CFDF7B3FF002801D0FEF7D0FE1F9D6B
:102A0000B268736832AF45E6802212069446179B7F
:102A10009946189B634498462D2313936AE5159BAA
:102A20000120002B32DD031C169A944663441A1CC5
:102A30000C93DB43DB171340B8E52023149A0625DB
:102A40009A430C9248E51F9B1593002B2BDD002D1C
:102A50000FD1079BDB070CD4159A131C0C92A5E52C
:102A6000239B85E54246302330349370D47022ADE9
:102A700089E701352B1C159AD7E7159B0133D6E75B
:102A8000079BDB0789D40C9A131C8AE70130C01A14
:102A9000C9E70D9B1D1D1B689846002B1ADB4B7860
:102AA0000D95FEF740FE002D0BD1079BDB0708D4E8
:102AB000012201230C9279E52D2342466442537092
:102AC00032E7AB1CB3E716AB2E259C4665445AE7AC
:102AD0001F9C1AE74B78012149420D958846FEF765
:102AE00022FEC04670B5061C02201A4CA5440C1CE0
:102AF0008989814368468181616E1991E189C1812B
:102B0000E169301C0791616A09911AA90091049149
:102B10008021C90002910591002106916946FEF7C6
:102B200083FD051E05DB301C694602F0B9F900285B
:102B30000CD16B469B895B0603D54023A2891343C6
:102B4000A381281C8D23DB009D4470BD01256D42AF
:102B5000EFE7C04698FBFFFFF0B55F465646444698
:102B60004D46F0B4CE4C0E1CA54407938B898021B2
:102B7000890183460B4205D10B43B381716EC94B6A
:102B80000B40736600231178099306930893531C36
:102B90000025C54F11910493002924D03B68581893
:102BA0004078000721D5736808240DE03968326841
:102BB0008C46137863445B781C420DD073680132F5
:102BC000013B013573603260002BEFDC5846311C4D
:102BD00004F016F90028E9D0049A1178531C1191D9
:102BE00004930029DAD1089832E025293AD100214E
:102BF000029188460431894602398C4601398A4659
:102C0000527804990131782A00D9B7E0A74C900096
:102C100020588746029C831C01D000F04BFE73684D
:102C2000002B01DD00F067FC5846311C04F0E8F889
:102C3000002801D100F05FFC002C01D100F068FCFD
:102C40000898002802D0B3895B0601D501204042D4
:102C5000AD239B009D443CBC90469946A246AB46A2
:102C6000F0BD04917368002B01DC00F04CFD049A68
:102C70003368013A197812789142B4D172680133FD
:102C8000013A726033600135049AA6E7884B0491DB
:102C900009930023069303339A467368002B00DCE4
:102CA0007FE0029B5B061DD439683268082401E08E
:102CB000013232601378CB185B781C4212D07368F3
:102CC0000135013B7360002BF2DC5846311C04F0E7
:102CD00097F80028B4D1326839681378CB185B783C
:102CE0001C42ECD15346022B00D15FE200DC16E21D
:102CF0005346032B00D1B4E2042B00D081E25846A6
:102D000002F0BCFD03680D9343465A1E00230C934A
:102D10005D33FF339A4206D943465E3BFF3B0C933B
:102D20005E23FF339846F023029ADB001A43002308
:102D30009A4602930F930E9305930B9354AB1C1C6E
:102D40000A932B1C9146251C4446984632681178FC
:102D50000B1C2B3BDBB24E2B00D9C7E155489B0027
:102D6000C3589F464846029A02430292049A04912D
:102D7000049952780131782A00D847E79B1803223A
:102D80005B7804911340012B01D100F074FC484B97
:102D900009930A230693073B9A467368002B00DDCC
:102DA0007FE75846311C04F02BF8002800D178E763
:102DB00046E70491EBE74023029A04911A4300236B
:102DC00002929A4669E714AB181C04F0E9F8402314
:102DD000029A04901A433F3B02929A465DE7802391
:102DE0000491029A9B001A43334B029209931023D9
:102DF00006930D3B9A4650E704912F4BC8E70223F8
:102E000004919A4649E704918823EAE704912A4B02
:102E1000099308230693053B9A463EE7029B0491DB
:102E2000DB0600D5D8E6029B5B0701D400F096FCD8
:102E3000079B1A680433029215800793049ACCE624
:102E4000049A52786C2A01D100F077FC544602981B
:102E5000049120430290D4E60123029A04911A437C
:102E60000292D4E7029A60467EE7042304919A46D0
:102E700013E70123029A04911A43029287E740461E
:102E800080004044400082183020404280469044F8
:102E9000049A04915278B4E6029A102064E7C0467E
:102EA0004CFDFFFFFFDFFFFF2C040020B0D300002C
:102EB0008580000094D50000F1830000029B5344FC
:102EC000002B14D14846B64B184081462970013575
:102ED00001239C467368013C013BE0447360002B76
:102EE00000DC14E101323260002C00D02EE7059B9B
:102EF0002C1C4546002B4DD064E24B46DB05DDD54E
:102F0000802349469943059B8946013305930C9BD1
:102F1000002BDDD0013B0C930134D9E780234846D8
:102F20000342E4D098438146D0E75346072BDED1D5
:102F300008239A46CAE75346062BD8D107239A4658
:102F4000C4E7029B002B00D019E1059B002B06D1A2
:102F5000E0234846DB001840984200D1E5E35346A1
:102F6000012B01D0042BC2D153460133DBB29A4668
:102F7000ACE75346002B00D008E1059B002B00D0A6
:102F80001EE2E0234846DB001840984200D1C4E32B
:102F90002C1C4546029B013B012B01D800F08DFC07
:102FA0005346013B062B20D85346022B01D800F094
:102FB00097FC032B19D05346043BDBB29A46DB4304
:102FC0009846331CA0445E46AB4645469846013CB5
:102FD0002178301C424606F07BFEAC42F7D15D46BC
:102FE0005346B3464646013DED1A4B46DB051CD51C
:102FF0004B465B0501D500F087FC631E19789846A7
:103000006B1E9A4665290AD0452908D05846321CBD
:1030100006F05EFEA31E98461978AB1E9A465846E7
:10302000321C06F055FE5546444610234A461340CE
:1030300000D0D1E52370C023DB0013408022D200F2
:10304000934200D183E30E9B002B00D018E3584637
:103050000A99002204F098F84B4602900391DB078E
:1030600000D5E5E24B469B0700D49DE30298039907
:10307000079A136818605960131D0793089B049AF8
:1030800001330893A9E55346022B00D02FE7032311
:103090009A461BE7A0234846DB0003408020C0007F
:1030A000834207D04B46034200D120E7059B002B0B
:1030B00000D16DE780204B468000034204D1059B80
:1030C0000B980F951B1A0E934846364B1840031C5D
:1030D000C02040001843002381460593F6E6029B7A
:1030E000012B00D003E702230293EFE60D9B1B7830
:1030F0008B4200D0FBE680204B468000034200D18B
:10310000F5E6294803409946059B0B93DEE65846B1
:10311000311C03F075FE002800D1E5E6E7E6012B3F
:103120006FD14346002B01D1013B9846029BDB0641
:1031300000D44CE114AB0024994632684946137818
:10314000CB5C002B15D073680132013B01347360F6
:103150003260A04510D0002BF0DC5846311C03F043
:103160004FFE002808D1494632681378CB5C002B0B
:10317000E9D1002C00D136E52D19049A2DE5029BEA
:10318000022B00D0EBE6032302939FE65346FD207B
:10319000033B034200D0AAE60433DBB29A4695E62D
:1031A0007FFEFFFF7FF8FFFF7FFDFFFF4346002B01
:1031B00001D1013B9846029BDB0700D58AE1029BC7
:1031C000DB0600D446E108230024994639683268BA
:1031D00048461378CB185B781842CDD1736801321A
:1031E000013B013473603260A045C5D0002BEFDC99
:1031F0005846311C03F004FE0028BDD139683268FE
:10320000E6E74346002B01D101339846029BDB07DA
:1032100000D58BE1029BDB0600D451E20024231C85
:103220004446A8461D1C0CE03268ED189446E41A8A
:10323000634433605846311C03F0E2FD002800D09F
:1032400037E27368A342EFDB2A1C4546A046141CF4
:1032500042469B1A736033684444434433602D19DB
:103260008BE743465A1E002305935D33FF339A4292
:1032700006D943465E3BFF3B05935E23FF339846EA
:10328000D823029C1B011C430023029354AB9A4693
:103290000A93B04B99462B1C4546A04654469A4685
:1032A000326811780B1C2B3BDBB24D2B21D8AA487E
:1032B0009B00C3589F46C0234046DB00034080204C
:1032C0008000834215D14046A44B1840031CA02027
:1032D000C000184310238046069373682170013B99
:1032E00001347360002B5CDD01323260013D002D42
:1032F000D6D143465546A246DB0507D50A9B9C42DC
:1033000000D9F5E10A9B9A4500D16CE410234246AE
:10331000134000D177E153460A9A9B1A029A9446C9
:103320006344ED18049A58E4069B0A2BE1DD4046FD
:103330008B4B18408046D0E7802340460342D8D0CC
:1033400098438046C9E7069B82485B00C35E4046BF
:103350000693834B18408046BFE743461B05BCD508
:10336000069B002B07D1802340469B0018438046D4
:10337000F93BFF3B069343465B0500D55FE14146C1
:10338000784B1940059B8846002B02D0013B0593E2
:103390000135029B013302937368013B7360002B7C
:1033A000A2DC5846311C03F02BFD00289ED0A0E77C
:1033B0004846069B5B00C35E0693082BB7DC98E784
:1033C0002C1C45464A46684B1A409146E2E5079B4D
:1033D000A9461A1D1B6802929A46181C4346013BD7
:1033E0005344984614AB1D1C3368011C1A78AA5C20
:1033F000002A14D072684C1C013A72605A1C326068
:103400001B780370414500D150E17368002B15DD36
:10341000201C3368011C1A78AA5C002AEAD14D46A8
:103420005346CC1A01D1FFF7DEFB00230B70089B3B
:103430002D1901330893029B07939EE65846311CD1
:1034400003F0DEFC0028E3D04D46211CA245E7D165
:10345000FFF7F6FB079B41461A1D1B680139181C34
:10346000029205931A1C80460B1C9844082344467C
:103470009A46A84638683168844650460B786344BB
:103480005B78184200D030E17368551C013B7360D3
:103490004B1C33600B78A9461370A2420AD07368A4
:1034A000002B01DD2A1CE5E75846311C03F0A8FC7F
:1034B0000028F7D0454600234A4613704B46059A2C
:1034C0009B1AED18089B049A01330893029B0793FB
:1034D000FFF783FB12AB181C082200210593FDF7B0
:1034E00095F91023029A1A4011AB92469946002A88
:1034F00000D1AFE000243A683368944608221B7874
:1035000063445B781A4203D14346002B00D078E134
:103510005346002B01D0FFF75FFB4B4652461A6023
:10352000089B049A01330893FFF757FB12AB181C52
:10353000082200210593FDF769F91023029A1A4029
:10354000002302929946002A00D17DE00024AA4679
:1035500026E0C04608D80000D0D60000FFFDFFFFDF
:103560007FF4FFFF7FFCFFFFFFFEFFFF029B002BAE
:1035700002D14B46029A1A6001235B429C46029B91
:10358000AA44E0440024002B03D104339C46029C4F
:10359000E1447368002B2ADD4346002B00D1F7E09D
:1035A00002F066F9A04201D1FFF74AFB8C20336894
:1035B00040001A780EA909180A5501337268336061
:1035C000059B013A651C72605846009349462B1CC6
:1035D00054AA02F073FC431C01D1FFF731FB002811
:1035E000C4D02C1C831CC7D17368002BD4DC584674
:1035F000311C03F005FC0028CED05546002C00D12C
:10360000C7E0FFF71DFB5246584613700A99069B08
:103610000022099CA04743469B0621D5079A1368C0
:103620001860131C04330793089B0133089372E658
:10363000079A136818605960131D07931EE54046EA
:10364000BD4B1840804648E6079B1A6804339146F4
:1036500007937BE7079B1A6804339146079349E772
:1036600043465B0700D4B1E0079B1A680433059218
:1036700010800793D8E7029A1A430292FFF787FB5C
:103680000F9C00220A23611C584604F0FBFC0E9B91
:10369000C21A0EA98C46A94B63449C4201D3A84C84
:1036A0006444201CA74903F0B7FCD0E44D46211C1C
:1036B000B6E62C1E454601D1FFF7C2FA2D195CE58E
:1036C000079B584619681C1D00960122434601F0CD
:1036D00005FD002801D1FFF7B3FA089B4519013316
:1036E00008930794049AFFF778FA45469146E2E674
:1036F00001235B429C46E244534658461978321CEB
:1037000006F0E6FAFEE55846311C03F079FB002886
:1037100001D1FFF7ACFAFFF793FA48468A4B1840FD
:10372000012381469A46FFF7D1FB4846864B184055
:10373000012381460293FFF7C9FB6146029A0A43BF
:103740000499029202310A780491FFF75AFA0B9A0F
:10375000059B9B1A5A42002B9BD178E4029BDB0706
:103760000DD4029B9B070AD50799EA170B685A608C
:103770001D600B1C04330793049AFFF72EFA079A77
:1037800013681D60131C04330793049AFFF725FA8E
:103790005546029B5A425341089A94469C446346BC
:1037A000049A0893FFF719FA079B029803991A1DC8
:1037B00090461C6803F0B4FB002861D0029803997E
:1037C00009F08AF943462060079357E44346DB0734
:1037D00000D523E743469B0700D41FE75B4B099ABC
:1037E00058460A999A4200D1A1E00022069B04F0B3
:1037F000FFFC079A136818605960131C0433079381
:1038000012E702F035F8A04201D1FFF719FA8C2037
:10381000631C0293336840001A780EA909180A55F0
:1038200072680133013A7260059A3360584600921B
:10383000029B494654AA02F041FB431C01D1FFF709
:10384000FFF9002801D0FFF7E5F94B46186001F0B9
:10385000FDFF00281BD0029C002C00D158E6A84692
:103860005D468C220EAB5200013C9B18195D281C52
:10387000321C06F02DFA002CF3D1AB46454647E644
:1038800003F0C6FB434620600793FFF7F7FB029B5C
:1038900000249C4601235B4265449C465346E04419
:1038A000002B01D0FFF7BBF904339C465446E1449A
:1038B000FFF7B5F94B461868C9E70A9A251E9542E5
:1038C00001D8FFF790F95C46013D2978201C321C95
:1038D00006F0FEF90A9B9D42F6D10898FFF7B8F969
:1038E0000A9A231C251C5C46934201D8FFF77BF9FA
:1038F000013D2978201C321C06F0EAF90A9B9D4202
:10390000F6D10898FFF7A4F90A9A251E954201D826
:10391000FFF769F95C46013D2978201C321C06F04E
:10392000D7F90A9B9D42F6D10898FFF791F900223A
:10393000069B04F01BFE5CE77FFAFFFF6B020000B2
:103940006A0200002CD800007FF8FFFFF18300001E
:10395000F8B5041C0F1C161C1D1C002804D0836B1A
:10396000002B01D101F046FB391C321C2B1C201C02
:10397000FFF7F2F8F8BDC04638B5324B051C1868A1
:103980000C1C002802D0836B002B3BD0A08983B293
:103990001A070DD52169002916D0DA0722D5002390
:1039A000A360636900205B42A361002922D038BD77
:1039B000DA063ED55B0728D421690822031C13438D
:1039C000A3819BB20029E8D1A022802092001A4056
:1039D00080008242E1D0211C281C01F053FFA38902
:1039E0002169DAE700229B0700D46269A260002007
:1039F0000029DCD1A3891A06D9D540221343A3811B
:103A00000138D4E701F0F6FAC0E7216B002909D0AC
:103A1000231C4033994203D0281C01F067FCA08985
:103A200000232363242398430023216963602160DA
:103A3000C3E709232B60402303430120A3814042B5
:103A4000B5E7C04628040020F8B544465F46564610
:103A50004D469B462F4BF0B41C68A4235B00051C0D
:103A6000E0580E1C904600284BD043681F2B0DDCFD
:103A70005C1C002D21D102339B0044601E500020AD
:103A80003CBC90469946A246AB46F8BD224B002B63
:103A90003CD0C820400000E000BF002836D0A4225F
:103AA00000235200A15843600160A050403283506F
:103AB000043283500124002DDDD09A0091468144C8
:103AC000424688214F467A50C42252009046804494
:103AD00042468739994012688A460A4394464246CC
:103AE00061461160842249465F4652008F50022D84
:103AF000C1D1021C55468D32FF3211680D4315604D
:103B0000B9E7201C4D30FF30E050AEE701204042C5
:103B1000B6E7C04660D000000000000008B5034BC7
:103B2000002B02D00248FCF709FE08BD000000008F
:103B30006D070000F0B556465F464D464446F0B46A
:103B40000E1C3C4B87B01B68019003934933FF3335
:103B50000493A422039B52009F58002F4CD0049B37
:103B6000984600239B46C4235B009C46BC446346A6
:103B70000293C6235B009A467C68BA44A5007D196F
:103B8000013C08D526E06B1DFF331B68B34204D00F
:103B9000043D013C1ED3002EF5D17B686A68013BD1
:103BA000A3423AD05B466B60002AF1D07B68029951
:103BB00099460123A34009680591194223D19047F2
:103BC0007B684B45C5D143461B68BB42C1D1043D10
:103BD000013CE0D2184B002B0ED07B68002B23D188
:103BE0003B68002B24D04246381C136000E000BF25
:103BF00043461F68002FB6D107B03CBC904699469B
:103C0000A246AB46F0BD51460968194207D12B1CAC
:103C10008433196801989047D2E77C60C4E72B1C75
:103C2000843318689047CBE73B68B8461F1CE1E730
:103C30000023FAE760D0000000000000F0B54D4618
:103C400044465F465646F0B403690C6985B00025CA
:103C50009C4200DD95E00B1C1422013C1433A600AD
:103C60009F1902939446031C634498463B6846445C
:103C700003910190591C306806F0B2FEB346051E50
:103C800045D0029B002699460020231CBC46041CFC
:103C90002F1C4846351C9946464604C81104090C99
:103CA0007943120C7A4369180B0C9A18336809048B
:103CB0001B041B0C1C19090C631A3168150C120427
:103CC000090C120C8A1A191452181B0414141B0C18
:103CD0001204134308C68445DFD25B461B683D1CB3
:103CE0004C466746002B12D15E46043EB0450CD2CE
:103CF0003368002B09D1434602E03268002A03D121
:103D0000043E013CB342F8D39846019B1C610198E4
:103D1000039902F075FC002833DB029B00209C46CF
:103D20006646A4463C1C47460135396804CE0B0460
:103D30001B0C181813041B0CC31A090C120C1814B2
:103D40008A1A12181B0410141B0C1204134308C700
:103D5000B442EAD26446A30043441A68002A10D150
:103D6000043B98450BD21A68002A08D1424602E06B
:103D70001968002903D1043B013C9A42F8D3019B06
:103D80001C61281C05B03CBC90469946A246AB4637
:103D9000F0BDC046F0B556465F464D464446F0B4C9
:103DA000016C99B082461D1C161C1F1C002909D0ED
:103DB0000123426C93404A608B6002F0BFF90023FC
:103DC00052461364B846002F32DB0023259A136055
:103DD0004246D84B1A409A4218D0301C391C002257
:103DE000002306F08FFF00282AD00123249A1360B5
:103DF000269B002B00D13FE2CF481860013819B054
:103E00003CBC90469946A246AB46F0BDCB4B249AAB
:103E10001360002E00D10BE2C948269B002BEED088
:103E2000C278C31C002A00D00533269A1360E6E747
:103E30000123259A13606B005B0898461F1CC7E797
:103E400017AB009316AB019350463B1C321C02F09B
:103E5000FBFC43468346180D00D1EFE13903B94C12
:103E6000090B0C43B849321C88461699231C894615
:103E7000002180440991101C191C0022B34B08F04A
:103E80000DFAB34AB34B07F06FFFB34AB34B07F0D9
:103E900005F8041C40460D1C08F0B0FDB04AB14BBB
:103EA00007F062FF021C0B1C201C291C06F0F6FF09
:103EB000041C0D1C08F06CFD291C03900022201C22
:103EC000002306F025FF002800D0CBE201230C934D
:103ED000039B162B11D8A44ADB00D3181868596825
:103EE000321C3B1C06F028FF002801D100F0F9FB32
:103EF000039B013B039300230C9342464B469B1AC2
:103F000000220692013B049300D5B8E2039B002BEC
:103F100000DA9EE2049A9C46111C0D930023614432
:103F200004910A93229B092B00D9A7E10124052BB8
:103F300002DD0024043B2293229B032B01D100F0DD
:103F40002EFD01DC00F0ACFC229B042B01D100F023
:103F50003FFC01230B93229B052B01D000F0A5FC15
:103F6000039A239B94466344129301330793984624
:103F7000002B01DC00F08BFC079B1D1C98460023E6
:103F8000524600215364172D0AD9012204335B00E5
:103F9000181C1430111C01328542F8D25346596462
:103FA000504602F0A3F853461864434608900E2B7F
:103FB00000D975E1002C00D172E103981096119799
:103FC000031E01DC00F042FD0F2267491340DB00B5
:103FD000CB1806111C685D68F30601D400F0EDFCF7
:103FE00010981199614B16401A6A5B6A07F07EFAC5
:103FF000032398460E900F91002E14D00123291C04
:104000009946201C4546594F4B46334204D03A68E6
:104010007B68013507F0A8FE76100837002EF3D133
:10402000A846041C0D1C0E980F99221C2B1C07F08F
:104030005DFA061C0F1C0C9B002B09D0301C391C90
:104040000022404B06F064FE002801D000F0E1FDA4
:10405000404608F0D3FC321C3B1C07F085FE0022D2
:10406000434B06F01BFF434A0B1C944663440E90DF
:104070000F910F93079B002B01D100F065FC039B70
:104080001493079B13930B9B002B01D100F02EFD83
:10409000139B354A013BDB00D3181A685B6800208C
:1040A000354907F023FA0E9A0F9B08F0F7F80E90A7
:1040B0000F91391C301C08F06BFC051C08F09EFCAD
:1040C000021C0B1C301C391C08F0E8F8061C0F1CE5
:1040D000089A3035E9B21170541C88460E980F9931
:1040E000151C3B1C321C06F027FE002801D000F0F6
:1040F000CDFD321C3B1C0020124908F0CFF8021CF9
:104100000B1C0E980F9906F017FE002801D000F046
:1041100002FE139B012B01DC00F089FCAC466344DA
:1041200099465B4613935346A2460E9C0F9D1593EA
:1041300036E0C0460000F07F9DD300000F2700004E
:1041400044D900000000F03F01FCFFFF0000F83FF1
:1041500061436F63A787D23FB3C8608B288AC63F8D
:10416000FB799F501344D33F58D9000030DA000048
:1041700000001C400000C0FC0000E03F321C3B1C63
:104180000020C24908F08AF8221C2B1C06F0C0FD52
:10419000002801D000F093FDCA4501D100F043FC96
:1041A000201C291C0022BA4B07F0DEFD0022B84B70
:1041B000041C0D1C301C391C07F0D6FD0F1C061CFE
:1041C00008F0E6FB804608F019FC021C0B1C301CB2
:1041D000391C08F063F801239C4643463033DBB2B8
:1041E000984601234246E2445B4253441A709B4680
:1041F000221C2B1C061C0F1C06F08AFD0028BDD0BB
:10420000139B54469B46159B9A46149B039350461A
:10421000594601F093FF00232370039B249A013336
:104220001360269B002B00D137E31C600898E6E55D
:1042300043461B0300D0EFE59648EEE5169B9946F2
:10424000179B4B441C1E944B9C4200DA44E24246AE
:10425000924B1B1B9A40131C914AA018321CC2405F
:10426000101C184308F006FC8E4D021C4B19611EF1
:10427000884601210991FEE58B48C0E5002352469E
:1042800050465364002101F031FF53461864012366
:104290000B93002322932393013B089007931293DF
:1042A000179B002B00DAAFE0039A0E2A00DDABE08B
:1042B000D3007E4AD3185C681B6804930594239B43
:1042C000002B00DA8FE2341C3D1C301C391C049E8C
:1042D000059F321C3B1C07F009F908F059FB80468A
:1042E00008F08CFB321C3B1C07F03EFD021C0B1C33
:1042F000201C291C454607F0D1FF089E3035341C90
:104300003570079D021C0B1C0134012D4ED000227C
:104310005F4B07F029FD00220023061C0F1C06F04E
:10432000F1FC002800D072E7089B079A9D1C9C4670
:104330005B46069353466244AA46049C059D9146FB
:1043400007930FE00022524B07F00EFD01239C461D
:1043500000220023061C0F1CE24406F0D3FC0028B8
:1043600000D0D9E2221C2B1C301C391C07F0BEF8EF
:1043700008F00EFB804608F041FB221C2B1C07F0C6
:10438000F3FC021C0B1C301C391C5646474607F038
:1043900085FF013E3037021C0B1CD3463770CA45DF
:1043A000D0D1069954468B4607998A46101C191C91
:1043B00006F074FD061C0F1C04980599321C3B1C6A
:1043C00006F0A6FC00280CD104980599321C3B1C71
:1043D00006F098FC002800D119E74346DB0700D41B
:1043E00015E7651E2B78089906E0A94200D15AE32B
:1043F000023C23782C1C013D2A1C392BF5D01D1CB6
:104400000135EBB2137002E70B9A002A50D0229AC2
:10441000012A00DC22E2079B5C1E0A9BA34200DA11
:10442000C1E21C1B079B002B00DAD5E3069B099316
:10443000079B069A504694469C4462460692049A0C
:10444000012194469C446346049301F05DFF81463C
:1044500033E0069A039BD21A5B420A93002306922A
:104460000D935FE5039808F0C9FA221C2B1C06F097
:1044700049FC43424341039AD31A039326E5049B24
:104480005B4206930023049340E5C0460000F03FE2
:104490000000244038D90000EFFBFFFF0EFCFFFFB7
:1044A00012040000000010FE9CD3000058D9000048
:1044B000069B0A9C099300239946099A002A0ED06C
:1044C00004990B1E0BDD914200DD7FE1069AD21AA2
:1044D0000692099AD21A0992049AD31A04930A9B53
:1044E000002B1ADD0B9B002B00D151E2002C10DDBC
:1044F0004946221C504601F0BFFF81465A464946B4
:10450000504601F00BFF051C5946504601F016FEBF
:10451000AB460A9B1A1B00D086E15046012101F0F0
:10452000F3FE0D9B8046002B15DD41461A1C5046BC
:1045300001F0A2FF229B8046012B00DC7AE10024DF
:1045400043461B6903339B004344586801F090FEC7
:104550002023181A08E0229B0024012B00DCD0E164
:104560000D9B0120002BEBD1049B9C461F23604434
:10457000184000D1AEE001331B1A042B00DCD1E35C
:104580001C23181A069B9C46844463460693099B89
:104590009C46844463460993049B9C46844463463A
:1045A0000493069B002B05DD594650461A1C01F06A
:1045B000C1FF8346049B002B05DD414650461A1C73
:1045C00001F0B8FF80460C9B002B00D08DE0079BCC
:1045D000002B00DC7AE10B9B002B00D1A3E0099BB0
:1045E000002B05DD494650461A1C01F0A3FF814609
:1045F0004B460B93002C00D05FE2079C089A013CCD
:10460000231C9446634409934346012406930B9B61
:1046100034404D465E4690469946D3460794069FE1
:10462000301C391CFFF70AFB031C0A903033291C8D
:10463000301C049301F0E4FF391C041C4A46584620
:1046400001F0FAFFC368071C002B00D017E1301CF3
:10465000391C01F0D5FF82465846391C01F06EFD29
:104660005346229A134303D1079B002B00D111E339
:10467000002C00DAA9E1229B1C4303D1079B002BED
:1046800000D1A2E15346002B00DD8AE26A46434690
:10469000127C5F1C1A70099B3C1C984500D192E269
:1046A000311C0A220023584601F052FD291C061C29
:1046B0000A22584600234D4500D1DAE001F048FDBA
:1046C0004946051C0A225846002301F041FDB84620
:1046D0008146A4E71C2055E7301CD64B1B1B984095
:1046E000C0E500230C93FFF708FC5846414601F053
:1046F00087FF002800DB6AE7039B5946013B0393D1
:10470000504600230A2201F023FD0B9B8346002B19
:1047100000D0E7E2129B002B04DC229B022B00DD81
:10472000F2E2129B0793089B47460024079E5D46D2
:10473000984606E0291C50460A22002301F008FD95
:10474000051C281C391CFFF779FA434630301855F0
:104750000134B442EEDB079C061CAB46B846002C85
:1047600000DC3FE2089B00279C46644459465046C3
:10477000012201F0DFFE4146834601F041FF00289F
:1047800000DC45E1651E2B78089A06E0AA4200D1BC
:10479000BBE0023C23782C1C013D392BF6D00133C1
:1047A0002B705046414601F0C9FC4B46002B00D10E
:1047B0002DE5002F05D04F4503D05046391C01F0A0
:1047C000BDFC5046494601F0B9FC20E5131C7DE6CE
:1047D00001230B93239B002B54DD1D1C9846129341
:1047E0000793FFF7CCFB079B002B00DD6BE500D0A8
:1047F000CAE00498059900228F4B07F0B5FA3B1CDC
:10480000321C06F0A3FA002398469946002870D07F
:10481000239B089CDB4303935046414601F08EFCEA
:104820004B46002BCDD1F2E45946504601F024FE10
:10483000834672E6002E00D081E63B030024002B65
:1048400000D08DE67D4B3B4200D189E6069B0134CA
:1048500001330693049B0133049381E6099A002AED
:1048600000D1C1E1764A0A9C9446069A63440992B3
:10487000DFE501F06DFCB846051C8146CFE601235B
:104880009A46E9E60123984612930793239300235F
:10489000524600215364FFF783FB0898FFF7AFFAF5
:1048A00000230B93229B022B94D0002453465046A6
:1048B0005C64211C01F01AFC5346186401230B931D
:1048C000023B0890239407931293E9E4229B022B66
:1048D00000DC80E6079B002B9AD14146504605221A
:1048E00001F036FC80465846414601F089FE00281A
:1048F0008EDD3123089A1370039B541C01330393FC
:104900008AE7002E00D02BE697E7039B089A013335
:1049100003933123137044E7069B5C469B46079B39
:104920009A4674E4404608F069F8321C3B1C07F0D4
:104930001BFA0022434B06F0B1FA434A0B1C944683
:1049400063440E900F910F93301C391C00223A4B98
:1049500007F0A4FC0E9E0F9F321C3B1C041C0D1C78
:1049600006F0EAF9002800D0BCE0201C291C0E9CAF
:104970000F9D221C2C1C80252D06AC466444231C54
:1049800006F0C6F9002852D00023984699463FE722
:10499000594650460A9A01F06FFD8346BDE5002353
:1049A0000B93FFF7DDFA0A9B0A94E21A0D9B002491
:1049B0009C46944463460D9334E5109A119B0E92E5
:1049C0000F9302239846FFF717FB4B4652460B9373
:1049D000DA46069BB346049EA946371C45469846D0
:1049E000002A0FDD59465046012201F0A3FD414641
:1049F000834601F005FE002800DC6CE1392E00D171
:104A0000FFE0771C0B9B2F706C1C4F469946C8E645
:104A1000002803D1F30701D5B4E61C1C631E1A78E5
:104A2000302AFAD0BDE6139B9B46159B9A46109EF2
:104A3000119F35E4EEFBFFFF000014400000F07F03
:104A40003304000000001C400000C0FC039B5C42DB
:104A5000002C00D1CFE0109811990F23B44A2340C5
:104A6000DB00D3181A685B6807F07EF92411061C76
:104A70000F1C002C00D14AE102239846013B9946C5
:104A80004746AC4D4B46234204D02A686B68013739
:104A900007F06AF964100835002CF3D1B846061CFB
:104AA0000F1CFFF7C8FA039B089A013303933023C6
:104AB000137001331370FFF7AAFB5968504601F0D9
:104AC00015FB4B464946041C1B690C319A1C92008D
:104AD0000C3001F07DFA5046211C012201F02AFD24
:104AE0000B908AE500239846994602E7139B904A6B
:104AF000591ECB00D3181591186859680E9A0F9B50
:104B000007F032F90E900F91391C301C07F040FF6E
:104B1000051C07F073FF021C0B1C301C391C07F02E
:104B2000BDFB139B0F1C08991A1C8C463035624440
:104B3000061C4C1C0D709146012B1ED0A046301C4B
:104B4000391C00227C4B07F00FF90F1C061C07F0E4
:104B50001FFF051C07F052FF3035021C0B1C301CD8
:104B6000391C07F09BFB257001344C45E9D1159B9E
:104B700044469C46061C0F1C644400220E980F9964
:104B80006E4B06F08BF9321C3B1C06F0C1F8002876
:104B90006AD0651E2B7808999846149B0393434668
:104BA0002AE44B46DA460B93B346069B049EA9467D
:104BB00045469846392E24D001362E700B9B4F4621
:104BC0006C1C9946EDE54B46069ADA469046B3468C
:104BD0002F1C049E9946C9E5069B079A9B1A0993C8
:104BE000002326E40124BDE53623169A0A9C9B1A6D
:104BF000069A09921DE40223109E119F9846FFF722
:104C00001AFA0B9B4F46994639236C1C2B70089A55
:104C1000C3E5079B002B00D184E6129C002C00DC2E
:104C200005E7039B0022013B1493301C424B391CC7
:104C300007F09AF8061C404601300F1C07F0DEFE14
:104C4000021C0B1C301C391C07F08EF800223C4B58
:104C500006F024F93B4A0B1C944663440E900F91D6
:104C600013940F93FFF70FFA0E9A0F9B002033490E
:104C700007F014FB321C3B1C06F05EF8002801D143
:104C8000D5E61C1C631E1A78302AFAD0149B0393B5
:104C9000FFF7BDFA4B46DA460B93B346069B049EDC
:104CA000A94645469846392EABD0002C01DD0A9E18
:104CB00031362E700B9B4F466C1C994671E5159B47
:104CC00054469A46139B5D469B46149B0899039352
:104CD0004346FFF791FB002800D093E6F30700D48A
:104CE00090E68BE64946002350460A2201F030FA4E
:104CF000129B8146002B01DD079370E4229B022B5F
:104D000002DC129B07936AE4129B0793E2E50223FD
:104D10009846FFF790F9149B089903930D1C43469E
:104D2000FFF76AFB042B00D13BE43C23181A29E46B
:104D300058D9000030DA0000000024400000E03FB5
:104D400000001C400000C0FCF0B5474680B48B89D1
:104D500080469AB20C1C11073DD4802212011343E5
:104D60006268A381002A62DDA56A002D2FD0424629
:104D70004146166800229BB20A60DA045BD5226DB8
:104D80005B0706D56368D21A236B002B01D0E36B57
:104D9000D21A00234046E169A847431C56D0A28995
:104DA0003E4B1340002262602269A3812260DB0433
:104DB0003BD44346216B1E60002908D0231C40339E
:104DC000994202D0404600F091FA0023236300206C
:104DD00004BC9046F0BD2669002EF8D023682660FA
:104DE0009D1B0023920700D16369A360002D04DCA2
:104DF000EDE736182D1A002DE9DD4046E169321C39
:104E00002B1C676AB8470028F3DC40230120A289E5
:104E100040421343A381DBE7A189204A63602369F1
:104E20000A40A2812360D304C3D52065C1E7E26BA9
:104E3000002A99DCCBE700224046E1690123A8471C
:104E4000021C431C18D0A389A56A99E743461B6836
:104E5000002BE1D01D2B06D0162B04D04023A289B5
:104E60001343A381B4E7A2890C4B1340A381002311
:104E70006360236923609CE743461B68002BE2D0F4
:104E80001D2B06D0162B04D04023A1890B43A381F0
:104E90009EE7434600201E609AE7C046FFF7FFFFEB
:104EA00038B5041C0D1C002802D0836B002B09D0E0
:104EB0000C22AB5E0020002B03D0201C291CFFF726
:104EC00043FF38BD00F096F8F2E7C04608B5011E72
:104ED00004D0054B1868FFF7E3FF08BD034B0449F6
:104EE000186800F08BFCF8E72804002060D0000070
:104EF000A14E000008B5024900F080FC08BDC04684
:104F0000859F0000F8B55F4656464D464446344BF3
:104F1000F0B4C363B823002403229B00C4500433BD
:104F20004568C2500833C218043BC250061C042313
:104F3000281C2C606C60AC60AB816C66EC812C61D1
:104F40006C61AC61002108225C30FBF75FFC254BF3
:104F5000254F9A462B62254BEF6299466B62244B94
:104F6000ED61AB62B56898460923281CAB81083B0C
:104F70002C606C60AC606C66EB812C616C61AC6128
:104F8000002108225C309B46FBF740FC53462B6215
:104F90004B466B624346EF62AB62ED61F5681223EC
:104FA000281CAB81103BEB812C606C60AC606C66A4
:104FB0002C616C61AC61002108225C30FBF726FC9F
:104FC00053462B624B466B624346AB625B46EF62D5
:104FD000ED61B3633CBC90469946A246AB46F8BD32
:104FE000F54E00005D700000E97000008570000063
:104FF000BD70000008B5836B002B01D1FFF782FF65
:1050000008BDC0467047C0467047C046F0B54F4621
:105010004646C0B485B081468846141C00F028FC82
:1050200001283FD0231C03AF4846391C42465C335D
:1050300004F018FF061C431C1ED000283ED039780F
:10504000002508E0236819702368013323600135C7
:10505000AE4233D9795DA368013BA360002BF1DA3E
:10506000A269934211DB2368197023681A780A2A0F
:10507000EBD148460A2109E04023A2891343A381CA
:1050800005B00CBC90469946F0BD4846221C04F081
:105090008DFE013043424341DBB2002BD7D00120CB
:1050A0004042EDE74346013BFE2BBBD86A464346F0
:1050B000D371D17903AF39700126C1E74046DFE7EC
:1050C00010B580249389A401234204D12343938102
:1050D000536E1C435466FFF799FF10BDF0B556465A
:1050E0009A465F4644464D46131C93465246F0B4DA
:1050F000534383B0071C0D1C0C9C98460020002BCA
:105100003AD0002F03D0BB6B002B00D18DE0802163
:10511000A38989019AB20A4206D10B434A4A616EB9
:10512000A3810A4062669AB26668002E32DB301CA8
:10513000930735D4C14610E0321C00F049FF2368C4
:10514000381C9B1923604B46211C9B1BAD199946AB
:1051500001F056FE002816D16668281C2168B1456A
:10516000EAD84A4600F034FF4A4663689B1A6360F7
:1051700023684B442360504603B03CBC904699469C
:10518000A246AB46F0BD43464A465946981A05F03A
:1051900027FCF1E700230020636000269307C9D5B0
:1051A000061E464500D94646281C2168321C00F0E0
:1051B0000FFF2368216B9946B1444B462360636817
:1051C000AD199B1B636043469E1B002938D0002EFF
:1051D000D1D0231C4033994204D0381C00F086F80B
:1051E000236899460023236323690193636900932D
:1051F00001E0002EBFD0256166612560381C211CAE
:1052000001F0FEFD019B2361009B63614B4623601F
:105210006368F61AED18002363600028E9D043465E
:105220005946981B05F0DCFBA6E7381CFFF7E2FEA9
:105230008021A38989019AB20A4200D074E76CE701
:10524000002ED1D1504697E7FFDFFFFFF8B50C1CC9
:10525000061C00F047FF204FBB685D6803239D4399
:105260001E4B2C1B9C466444240B1D4B013C240309
:105270009C4207DD301C002101F080FEBB685B19F9
:10528000984204D0301C00F02FFF0020F8BD61428E
:10529000301C01F073FE431C0DD001232D1BBA6896
:1052A0001D43104B55601A68301C141B1C6000F025
:1052B0001BFF0120EAE7301C002101F05FFEBB6804
:1052C000C21A0F2ADEDD08490968401A054908603C
:1052D00001210A435A60D5E78C040020EF0F00003B
:1052E000FF0F0000DC08002098080020F0B54746BA
:1052F00080B4002949D00C1C051C00F0F3FE211CD1
:1053000008394F6801233C1C9C430A195068984691
:1053100002339843031C5B488668964252D0464647
:1053200053603E420BD10826B4460F688444C91B23
:10533000E4198F6867455ED0CE68FE60B7600127CC
:10534000D61876683E4208D1E4184F4E9368B342AF
:1053500000D173E0D268DA6093604C4B27434F6012
:105360000C519C4214D8E408FF3BA210FF3B934031
:105370004268E4001343436000198368C8608B608F
:105380008160D960281C00F0AFFE04BC9046F0BDDF
:10539000630A042B43D8A30938331A1C5E00B600F5
:1053A0008619B3680327B3423FD05A68BA43A24272
:1053B00002D99B689E42F8D1DA68CA608B6091601E
:1053C000D960DFE71C1943463B4206D10B68C91A76
:1053D0008A68E418CB68D3609A6001222C4B224380
:1053E0001B684A6081609C42CCD32A4B281C1968F8
:1053F000FFF72CFFC6E74646D0184068304209D177
:105400004646E418D36892682643D3609A604E609B
:105410000C51B7E7464626434E600C51B2E7142BB9
:1054200014D85B331A1C5E00B9E701249210944033
:10543000221C4468224342601A1CBEE72743D960FD
:105440009960CB608B604F600C519BE7542B04D864
:10545000230B6E331A1C5E00A1E7AA22520093426E
:1054600004D8E30B77331A1C5E0098E70A4A93428C
:1054700004D8A30C7C331A1C5E0090E7FC267E2225
:105480008DE7C0468C04002094040020FF0100003A
:1054900094080020D808002054050000F0B55F46AD
:1054A00056464D464446F0B4936885B0002B27D04D
:1054B00002908B8993460C1C1A0729D50A69002A89
:1054C00026D05A46126892469A072ED5B64B002629
:1054D00000259846002D6BD0E1692B1E434500D96D
:1054E000B14B0298321C676AB847002800DC77E0AD
:1054F0005B469B6836182D1A181A5B469860E9D1EE
:10550000002005B03CBC90469946A246AB46F0BD93
:105510000298211CFEF730FA002800D03BE15A46E1
:10552000A389126892469A07D0D4DA075FD5002380
:10553000002799461D1C0193002F2ED0019B002BA4
:1055400000D1C3E02E1EBE4200D93E1C2068216956
:10555000B046A2686369884204D9D2180392964281
:1055600000DDF1E09E4200DA94E00298E1694A46EB
:10557000666AB0478046002832DD4346ED1A00D106
:1055800097E04346FF1A5B4642469B68C1449B1A1C
:105590005A469360B4D0002FD0D153461B68994629
:1055A00053465F6808239C460023E2440193C3E707
:1055B00053461E685D6808239C46E2448AE77B4B9D
:1055C000281E984200D9181C311C05F099FA031CBA
:1055D000E169734302983A1C666AB047002825DCEB
:1055E000A289402301201343A381404289E7002779
:1055F0000025002D26D0A2689046802292001342FA
:1056000027D0464645455DD39022D20013426AD149
:105610002068321C391C00F019FD4246A368281C82
:105620009B1AA36023689C46664426605B469B6881
:105630003F182D1A181A5B46986000D160E7A389BD
:10564000002DD8D152461768556808229446E24486
:10565000CFE720682369984202D86669B542AED286
:105660002E1E464500D94646321C391C00F0EEFC81
:10567000A36822689B1B9219A3602260002B01D0B3
:10568000301CD3E70298211CFFF70AFC0028A7D1A1
:10569000301CCBE7321C494600F0D8FCA3689B1BAA
:1056A000A36023689C46434666442660ED1A00D0FA
:1056B00067E70298211CFFF7F3FB002890D1002335
:1056C00001935EE7A84620682E1CA2E748460A21FF
:1056D0003A1C00F03BFC002859D04B460130C51A5B
:1056E000012301932EE721692268521A9146484608
:1056F000626901305600B218D60FB61876104019FC
:10570000321E824201D2061C021C02985B052DD576
:10571000111C00F035F98046031E3FD04A4621692E
:1057200000F056FCA289224B134080221343A38130
:105730004346404623614B4648446661F61AA660DC
:105740002060A8462E1C64E7161C494600F07EFC2B
:10575000B4462368029863442360211CFFF7A0FB32
:10576000002800D03CE7039B984606E701F052F979
:1057700080460028DCD1029D2169281CFFF7B6FD78
:105780008022A38993431A1C0C232B6029E7012351
:105790007D1C0193D6E601204042B2E6029A0C330A
:1057A0001360A2891DE7C04600FCFF7FFFFFFF7F5B
:1057B0007FFBFFFFB823F0B547469B0080B4C718B6
:1057C000002F19D0884600267B68BC685D1E0CD46B
:1057D000A389012B06D90E22A35E013302D0201C1F
:1057E000C04706436834013DF2D23F68002FEBD139
:1057F000301C04BC9046F0BD0026F9E7F8B5B8238C
:105800004F4646469B00C0B4C718002F1CD089469F
:10581000804600267B68BC685D1E0DD4A389012BE1
:1058200007D90E22A35E013303D04046211CC8478E
:1058300006436834013DF1D23F68002FEAD1301CA5
:105840000CBC90469946F8BD0026F8E7031C0020E2
:10585000FF2B05D8034A1068C31808205B7818404E
:105860007047C0462C0400200048704768040020A0
:10587000014B18687047C0468804002000487047F4
:1058800030040020F0B5474680B48B8990B09AB2BE
:10589000940741D40C1C051C0E20095E00291CDB5A
:1058A000281C01AA04F0B4FB002814DBF023029AA0
:1058B0001B0213402F4A9F18794279418022884663
:1058C0001202934232D080228026A3891201134310
:1058D000A381F6000AE0A3899AB24026120622D5D7
:1058E000802212011343A38100239846281C311CF7
:1058F00000F046F8002830D01F4BEB638023A289CC
:1059000020601343A381434620616661002B18D1B8
:1059100010B004BC9046F0BD0B1C43330B600B6110
:1059200001234B61F4E78026F600D9E7134BA26A06
:105930009A42C8D18026A389F6003343A381E66446
:10594000D4E70E23E15E281C04F02EFF0028DFD0F0
:105950000123A2891343A381DAE7A3899A05D7D447
:1059600002221343A381231C4333236023610123B9
:105970006361CDE700E0FFFFF54E0000BD70000061
:10598000F0B55F464D4656464446F0B40D1C0B3507
:1059900083B0071C162D2DD907239D4300D5C7E0E2
:1059A000A94200D9C4E000F09DFBF823FF339D42DB
:1059B00028D8E908CB4ECB00F318DC689C4200D114
:1059C000C1E1032362689A43131CE268A168CA60BC
:1059D00091600122E3185968381C0A435A6000F0AC
:1059E00083FB201C083003B03CBC90469946A2467D
:1059F000AB46F0BD102900D99AE0381C00F072FBCC
:105A00001025D6E7690A00D196E0042900D93CE1C7
:105A100038239C46A9098C4463465900B14E89003D
:105A20007118CC68A14215D0032362689A43131CF5
:105A3000521B0F2A00DD83E00320002A07DBC4E7A6
:105A4000636883435A1B0F2A7ADC002ABDDAE468B4
:105A5000A142F5D1614601310091321C346908320E
:105A6000944200D161E10323616899430B1C481BF8
:105A70000F2800DD48E1726132610028A9DA9A4AF4
:105A8000914200D90DE10123C80882109340726849
:105A90001A43C300F3189868E360A0609C60131C6D
:105AA0007260C4600120009A9210904098424CD8D5
:105AB00018420DD103220099400091430A1D009223
:105AC000184205D1009A4000043200921842F9D0E1
:105AD00003239846009AD3009946B144CC46924697
