:100000000040002089070000C9070000CB0700005E
:1000100000000000000000000000000000000000E0
:10002000000000000000000000000000CD070000FC
:100030000000000000000000CF070000D107000012
:10004000D3070000D3070000D3070000D307000048
:10005000D307000000000000D3070000D307000012
:10006000D3070000D3070000D3070000D307000028
:10007000D3070000D3070000D3070000D307000018
:10008000D3070000D3070000D3070000D307000008
:10009000D3070000D3070000D3070000D3070000F8
:1000A000D3070000D307000000000000000000009C
:1000B0000000000000000000000000000000000040
:1000C00010B5064C2378002B07D1054B002B02D02E
:1000D000044800E000BF0123237010BD5008002039
:1000E0000000000030140000044B10B5002B03D0BA
:1000F0000349044800E000BF10BDC04600000000F6
:100100005408002030140000164B002B00D1144B73
:100110009D46402292029A1A924600218B460F4633
:100120001348144A121A00F047FE0F4B002B00D060
:1001300098470E4B002B00D0984700200021040068
:100140000D000D48002802D00C4800F03DFF00F0E3
:1001500051FB2000290000F029F800F03BFBC046CD
:100160000000080000400020000000000000000027
:1001700050080020CC080020C90F0000D90F000053
:1001800080B582B000AF082000F058FB03007B6010
:100190007B6801220D211D2000F048F87B681800C3
:1001A00000F056FBC046BD4602B080BD80B500AF32
:1001B00000F006F8FFF7E4FF00231800BD4680BDFD
:1001C00080B582B000AF154B7B607B6800221A605F
:1001D000134AA123DB000121D150114A114B1E21EA
:1001E000D1500F4AA023DB000521D150A023DA050E
:1001F000E023DB00C021C900D150A023DA05EF23A2
:10020000DB00C021C900D1500549074ACC235B045B
:100210008B50C046BD4602B080BDC0460035004090
:10022000003000400C0500002405000090B587B0A8
:1002300000AFBA607B600F243B19021C1A700E20BD
:100240003B180A1C1A7030493B191A78B123DB009D
:10025000CA502D4B01229A602B4A8E235B0000214D
:10026000D15029493B181B78284A8B50C046264A52
:100270008E235B00D358002BF9D000F049F80321FE
:10028000032000F069F8204A8E235B000021D15042
:100290001D4B01221A6000237B6117E0C0461A4AF9
:1002A00084235B00D358002BF9D0174A84235B00CA
:1002B0000021D150144AA323DB00D1587B697A680E
:1002C000D318CAB21A707B6901337B61BB68013BEA
:1002D0007A699A42E2DB0C4B01225A61C0460A4A13
:1002E00084235B00D358002BF9D0074AA323DB00FB
:1002F000D158BB68013B7A68D318CAB21A70C0469D
:10030000BD4607B090BDC046003000401C0500004F
:1003100080B582B000AF04237B6013E001227B68CC
:100320009A401100A023DA05A323DB00D15001225B
:100330007B689A40A023DB051100064A99507B6830
:1003400001337B607B680F2BE8DDC046BD4602B001
:1003500080BDC0460C05000090B587B000AF786046
:10036000396000F029F808243B197A681A603B19B3
:100370003A685A603B19180000F034F82200BB18A4
:100380001B687B61BB185B683B6101227B699A40FB
:10039000A023DB051100074A995001223B699A40CE
:1003A0001100A023DA05A123DB00D150C046BD46D1
:1003B00007B090BD0C05000080B500AFA023DB05A1
:1003C0000649E02212025A50A023DA05A123DB00DD
:1003D0000349D150C046BD4680BDC0460C05000053
:1003E000F01F000080B586B000AF78607B681B68A6
:1003F0007B617B685B683B617B69022B02DD0223CA
:100400007B6105E07B69023302DA02235B427B6198
:100410003B69022B02DD02233B6105E03B690233AD
:1004200002DA02235B423B613B690233042B00D9B1
:10043000BEE09A00644BD3181B689F467B69023369
:10044000042B00D9ABE09A00604BD3181B689F4681
:100450000623FB600F23BB6013E00A23FB600E231F
:10046000BB600EE00423FB600F23BB6009E009239F
:10047000FB600E23BB6004E00523FB600F23BB6021
:10048000C0468CE07B690233042B00D989E09A00D6
:100490004F4BD3181B689F460B23FB600D23BB609B
:1004A00013E00A23FB600D23BB600EE00923FB6011
:1004B0000D23BB6009E00823FB600D23BB6004E053
:1004C0000723FB600D23BB60C0466AE07B690233F3
:1004D000042B68D89A003F4BD3181B689F4605230E
:1004E000FB600E23BB6013E00C23FB600D23BB609D
:1004F0000EE00623FB600E23BB6009E00C23FB60CB
:100500000F23BB6004E00423FB600E23BB60C046E6
:1005100049E07B690233042B47D89A002E4BD3184D
:100520001B689F460723FB600F23BB6013E0082373
:10053000FB600F23BB600EE00923FB600F23BB6051
:1005400009E00A23FB600F23BB6004E00B23FB6080
:100550000F23BB60C04628E07B690233042B26D8FA
:100560009A001E4BD3181B689F460423FB600D2383
:10057000BB6013E00723FB600E23BB600EE0052386
:10058000FB600D23BB6009E00823FB600E23BB600A
:1005900004E00623FB600D23BB60C04607E0C046B5
:1005A00006E0C04604E0C04602E0C04600E0C046A7
:1005B0007B68FA681A607B680433BA681A60C046C0
:1005C000BD4606B080BDC046B4130000C81300008D
:1005D000DC130000F01300000414000018140000E5
:1005E00080B500AF00F036F8031E06D0134B144A56
:1005F0001A60144B802212021A6000F06BF8031E7E
:1006000005D08023DA05C123DB000121D15000F0A1
:1006100087F8031E0ED00C4B1B68012B07D00A4B2A
:100620000A4A1A60C046084B1B68012BFBD1084BD5
:10063000C0221A60C046BD4680BDC04604050040C9
:10064000DFFF07C0186C004000EC06407593000007
:1006500014EC064080B500AF1A4B1B68FF22134014
:10066000012B2AD1184B1B680F22134025D1174BA1
:100670001B68F022134006D1154B1B68F022134073
:1006800001D101231AE0114B1B68F0221340102BFB
:1006900006D10F4B1B68F022134001D101230DE05E
:1006A0000A4B1B68F0221340302B06D1084B1B6805
:1006B000F022134001D1012300E000231800BD46C1
:1006C00080BDC046E00F00F0E40F00F0E80F00F03E
:1006D000EC0F00F080B500AF0D4B1B68FF221340FC
:1006E000012B11D10B4B1B680F2213400CD10A4B6D
:1006F0001B68F0221340402B06D1084B1B68F022E8
:10070000134001D1012300E000231800BD4680BD45
:10071000E00F00F0E40F00F0E80F00F0EC0F00F045
:1007200080B500AF144B1B68FF221340012B1ED174
:10073000124B1B680F22134019D1114B1B68F0227A
:100740001340A02B06D10F4B1B68F022134001D1A0
:1007500001230DE00A4B1B68F0221340D02B06D179
:10076000084B1B68F022134001D1012300E0002355
:100770001800BD4680BDC046E00F00F0E40F00F059
:10078000E80F00F0EC0F00F003210A4802680A436A
:100790000260094802680A4302600849084A094B96
:1007A0009B1A03DD043BC858D050FBDCFFF718FF51
:1007B000FFF7AAFC24050040540500403C1400004B
:1007C0000000002050080020FEE7FEE7FEE7FEE7FD
:1007D000FEE7FEE710B50021040000F069FB044BC2
:1007E0001868C36B002B00D09847200000F0D4FDA0
:1007F0002C14000070B50D4E0D4DAD1BAD1006D084
:100800000024A300F35801349847A542F9D100F021
:10081000C5FD084E084DAD1BAD1006D00024A30049
:10082000F35801349847A542F9D170BD440800201F
:1008300044080020440800204C08002010B5034B59
:100840000100186800F00EF810BDC046000000203E
:1008500010B5034B0100186800F028FC10BDC0461D
:1008600000000020F0B557464546DE464E46E0B54E
:100870000D000B3583B00700162D28D8102900D99C
:10088000C1E000F0E7FA102518230220CC4EF3183F
:100890001A005C68083A944200D15BE10323626865
:1008A0009A431300E268A168CA6091600122E318CC
:1008B000596838000A435A6000F0D4FA2000083022
:1008C00003B03CBC90469946A246AB46F0BD072318
:1008D0009D4300D597E0A94200D994E000F0BAFA10
:1008E000F823FF339D4200D859E1680A00D18EE019
:1008F000042800D934E138239846A80980443930C7
:10090000C100AF4E71180839CC68A14218D003233A
:1009100062689A431300521B0F2A00DD18E1002A77
:10092000C0DA03239C4608E06246636893435A1B7F
:100930000F2A00DD0CE1002AB4DAE468A142F3D109
:10094000320034690832944267D0032361689943C6
:100950008A460B00491B0F2900DD0DE172613261EF
:100960000029A3DA974A924500D94AE1DB08FF3A09
:100970009910FF3A8A40DB0071689B190A43996815
:100980007260E360A1609C60CC600121831099409B
:10099000914248D80A4205D10323984349000430C4
:1009A0000A42FBD003239846C3009946B144CC4683
:1009B00082466346DC68A44507D1F4E0002A00DBE8
:1009C00010E1E468A44500D1EDE04246636893433A
:1009D0005A1B0F2AF2DD012080466119054365602C
:1009E000A068E5680836C560A8604046F160B1605F
:1009F00010434860CE608E603800E25000F032FA5A
:100A0000200008305CE70C2300203B6058E7802181
:100A10003F2389004020984673E7012172688310C4
:100A200099409142B6D90323B46862689A439046CC
:100A3000AA4202D3531B0F2B7CDC634A634B9346C1
:100A40001B681268EB18013200D13BE1604A944602
:100A500063441B0B1B0301930199380000F00AFA51
:100A600003008146013300D1F9E04346E318834295
:100A700000D9F2E0574A01999246126894465246CC
:100A800061441160834200D13EE15A46126801324E
:100A900000D155E14A46D31A591853461960072325
:100AA0004A46134000D123E1082189464A49D21A17
:100AB0009144CB1A019A38004A441105090D5B1A7A
:100AC00019009B4600F0D6F9431C00D134E14B4697
:100AD000C01A01235844184353461B685B4419004D
:100AE000534619604B46B3605860B44212D0434637
:100AF0000F2B00D81CE1072260680C3B9343063A99
:100B0000024005201A436260E218506090600F2B8B
:100B100000D933E1314B1A68914200D9196003239F
:100B2000B46862689A432E4B1868814200D89AE0F4
:100B3000196098E00122290013431143651961608F
:100B40003800B5606B6000F08DF920000830B7E622
:100B50004046F5E6DC680230A34200D1F0E69DE6AF
:100B6000142874D9542800D9AFE06E239846280B76
:100B700080446F30C100C4E6012360191D436560E5
:100B800070613061C26082601A0053460A4342605D
:100B90003800E15000F066F92000083090E62B00A4
:100BA000E808083372E608239B46073BDC449B4673
:100BB000DA4443465246134200D0FAE66DE0C0469E
:100BC00030040020FF010000380800209C080020AD
:100BD0000F1000006C08002008100000940800208E
:100BE000980800200122E318596838000A435A6027
:100BF000E368A268D3609A6000F034F920000830FE
:100C00005EE65A0A042A39D9142A74D85B23984616
:100C100090445C32D20008235B429C46B218944454
:100C200063469968032399468C4559D04B464A68D8
:100C30009A43524502D989688C45F7D1CB687268CE
:100C40009C466346A160E3609C60CC609DE65B23AC
:100C5000984680445C30C10053E6B44274D003230C
:100C6000B46862689A43531B954202D80F2B00DD8B
:100C700060E7380000F0F6F8002021E69A093823F2
:100C8000984690443932D200C5E74B461A68083B73
:100C9000013891469A4200D087E043460342F4D19E
:100CA00073688B4373604900994200D9BBE6002901
:100CB00004D1B8E6042294464900E2440B42F9D03C
:100CC000504671E610330193C6E6AA235B009842B2
:100CD00024D8DD3B9846E80B80447830C10010E60C
:100CE000434601229B109A4073681A437260A8E73A
:100CF00080235B01DEE6542A2FD81A0B6E23984618
:100D000090446F32D20086E71A0500D0BDE601207C
:100D1000019BB268434403435360FBE6244B984273
:100D200026D87C239846A80C80447D30C100E8E595
:100D300001234A4653609CE7002301209B46CBE6F3
:100D40005B464A461A60AAE61A4A01999246126818
:100D5000944652466144116097E6AA2149008A42AE
:100D600014D8DA0B7723984690447832D20052E7B1
:100D7000FE217E2389007F209846C2E521003800AD
:100D8000083100F093F953461968C3E608498A42CE
:100D900006D89A0C7C23984690447D32D2003AE7DC
:100DA000FE227E239200984635E773687BE7C046B3
:100DB000540500006C080020F0B5830746D0541E8F
:100DC000002A42D0CEB20200032502E01A00013C04
:100DD0003BD3531C16702B42F8D1032C2DD9FF2284
:100DE0000A40150215432A0415430F2C16D9270073
:100DF000103F3F093E01B4461E001A0010366644FB
:100E0000156055609560D5601032B242F8D10F225E
:100E100001373F01DB191440032C0ED9261FB608F9
:100E2000B700BC461A001F1D674420C2BA42FCD15D
:100E300003220136B6009B191440002C05D0C9B21C
:100E40001C19197001339C42FBD1F0BD1400030042
:100E5000C3E7C04610B5024800F012FA10BDC04604
:100E6000B408002010B5024800F00CFA10BDC046CE
:100E7000B4080020002370B5064C0500080023606C
:100E800000F07CFA431C00D070BD2368002BFBD01F
:100E90002B60F9E7C8080020034B10B5002B02D0E7
:100EA000024800F091F810BD00000000D90F0000CA
:100EB000F0B5DE4657464E464546E0B53F4B87B057
:100EC0001B680590180001930F0000F0D9F93C4B06
:100ED0001B6803934933FF330493A422039B5200FE
:100EE0009E58002E4BD0049B9A4601239B46746863
:100EF000651E32D4C4235B00994604339C46B44437
:100F000063460134A4003419B144019302E0043C67
:100F1000013D22D3002F04D0631CFF331B68BB426A
:100F2000F5D173682268013BAB4233D000232360C4
:100F3000002AECD07368494698465B46AB40096886
:100F4000194229D1904773684345C6D153461B685F
:100F5000B342C2D1043C013DDCD21A4B002B0ED06F
:100F600072683368002A22D1002B20D0524630000C
:100F70001360FFF76DFC53461E68002EB7D10F4B70
:100F8000186800F07FF907B03CBC90469946A2462D
:100F9000AB46F0BD7560CBE7210001988031006859
:100FA00009680290184205D105989047CBE7B246F0
:100FB0001E00E2E708009047C5E7C0464008002051
:100FC0002C1400005108000010B50100002300227D
:100FD000002000F059F910BD70B5094B094CE41A16
:100FE000A41009D0084AA518AD00ED182B68013CE3
:100FF0009847043D002CF9D100F0D6F970BDC046E9
:101000004C08002050080020FFFFFF3FF8B50C00FF
:101010000600FFF71FFF204FBB685D6803239D4359
:101020001E4B2C1B9C466444240B1D4B013C24038B
:101030009C4207DD00213000FFF71CFFBB685B19F5
:10104000984204D03000FFF70DFF0020F8BD614248
:101050003000FFF70FFF431C0DD00122BB682D1B92
:1010600015435D600F4B30001A68141B1C60FFF7BE
:10107000F9FE0120EAE700213000FFF7FBFEBA6825
:10108000831A0F2BDEDD08490968401A05490860FC
:1010900001210B435360D5E730040020EF0F00001F
:1010A000FF0F00006C08002038080020F8B5CE467D
:1010B0004746050080B50C1E55D0FFF7CBFE21003A
:1010C00008394F68012438000323A0430A185668E2
:1010D0009E43B146644EB368934229D04B46536059
:1010E000D3189C463C4242D10F68C91B8B68C0197B
:1010F000984663465F6808239C46B4442740E04511
:101100006AD04346CC68DC60A360002F32D1012452
:1011100048440443A0469368544C0F18A34200D19E
:101120007FE0D268DA60936043464B60386025E028
:1011300003004B443C4206D10A68891A88689B1810
:10114000CA68C260906001221A434A60484AB1608E
:1011500012689A4204D8474B28001968FFF756FFD7
:101160002800FFF77FFE0CBC90469946F8BD5F68EB
:101170002740CCD0012303434B6008503E4B98429C
:101180001AD9430A042B33D882091400393238346F
:10119000D200B218083A936803279A4239D05C68A3
:1011A000BC43844233D99B689A42F8D1D368CB6060
:1011B0008A609960D160D3E7C008FF3B8210FF3B93
:1011C00093407268C000134373608619B368CE60A1
:1011D0008B60B160D960C3E7002F41D103009068F4
:1011E0004B44D2681C43C26090604C60CB50B7E760
:1011F000142B07D9542B1CD8020B14006F326E34F9
:10120000D200C6E71C005C335B34DA00C1E71A0089
:10121000CCE70123A410A34070680343736013005C
:10122000C5E7D9609960CB608B6043464B603860FE
:1012300096E7AA225200934205D8C20B14007832D6
:101240007734D200A5E70D4A934205D8820C1400EA
:101250007D327C34D2009CE7FE227E24920098E707
:1012600004434C6010607BE7300400203804002009
:101270003C0800209C080020FF01000054050000ED
:101280007047C0467047C046F0B54E464546DE46FC
:101290005746E0B5364D83B00600286898460F00E3
:1012A0009146FFF7EDFF334B1C68A4235B00E05829
:1012B000002852D043681F2B13DC5A1C0192002EC9
:1012C00028D1019A02339B0042601F502868FFF723
:1012D000D9FF002003B03CBC90469946A246AB46DD
:1012E000F0BD254B002B3DD0C8204000FFF7A6FAEB
:1012F000002837D0A42200235200A1584360016087
:10130000A0504032835004328350013301930023B4
:10131000002ED6D09A00924682444A4688215446EE
:101320006250C4225200914681444A46873999400E
:1013300012688B460A4394464A46614611608422ED
:1013400041465200A150022EBBD102005C468D32B4
:10135000FF3211680C431460B3E720004D30FF30BA
:10136000E050A7E72868FFF78DFF01204042B1E772
:10137000400800202C1400003D080000044A1368B7
:10138000002B00D1034B1818106018007047C0469E
:10139000A0080020D0080020FEE7C046F8B5C046EF
:1013A000F8BC08BC9E467047F8B5C046F8BC08BCFF
:1013B0009E4670473C04000084040000CC040000FA
:1013C0001205000058050000500400005A040000F7
:1013D000640400006E04000078040000980400001B
:1013E000A2040000AC040000B6040000C004000029
:1013F000DE040000E8040000F2040000FC04000029
:1014000006050000240500002E0500003805000038
:10141000420500004C0500006A050000740500004C
:101420007E050000880500009205000008000020ED
:0414300000000000B8
:08143400D4ECFF7F0100000071
:10143C00080000200000000000000000F402002062
:10144C005C030020C403002000000000000000002A
:10145C000000000000000000000000000000000080
:10146C000000000000000000000000000000000070
:10147C000000000000000000000000000000000060
:10148C000000000000000000000000000000000050
:10149C000000000000000000000000000000000040
:1014AC000000000000000000000000000000000030
:1014BC000000000000000000000000000000000020
:1014CC000000000000000000000000000000000010
:1014DC000000000000000000000000000000000000
:1014EC0001000000000000000E33CDAB34126DE69D
:1014FC00ECDE05000B000000000000000000000006
:10150C0000000000000000000000000000000000CF
:10151C0000000000000000000000000000000000BF
:10152C0000000000000000000000000000000000AF
:10153C00000000000000000000000000000000009F
:10186C0000000000000000003004002030040020C4
:10187C0038040020380400204004002040040020DC
:10188C00480400204804002050040020500400208C
:10189C00580400205804002060040020600400203C
:1018AC0068040020680400207004002070040020EC
:1018BC00780400207804002080040020800400209C
:1018CC00880400208804002090040020900400204C
:1018DC009804002098040020A0040020A0040020FC
:1018EC00A8040020A8040020B0040020B0040020AC
:1018FC00B8040020B8040020C0040020C00400205C
:10190C00C8040020C8040020D0040020D00400200B
:10191C00D8040020D8040020E0040020E0040020BB
:10192C00E8040020E8040020F0040020F00400206B
:10193C00F8040020F8040020000500200005002019
:10194C0008050020080500201005002010050020C7
:10195C001805002018050020200500202005002077
:10196C002805002028050020300500203005002027
:10197C0038050020380500204005002040050020D7
:10198C004805002048050020500500205005002087
:10199C005805002058050020600500206005002037
:1019AC0068050020680500207005002070050020E7
:1019BC007805002078050020800500208005002097
:1019CC008805002088050020900500209005002047
:1019DC009805002098050020A0050020A0050020F7
:1019EC00A8050020A8050020B0050020B0050020A7
:1019FC00B8050020B8050020C0050020C005002057
:101A0C00C8050020C8050020D0050020D005002006
:101A1C00D8050020D8050020E0050020E0050020B6
:101A2C00E8050020E8050020F0050020F005002066
:101A3C00F8050020F8050020000600200006002014
:101A4C0008060020080600201006002010060020C2
:101A5C001806002018060020200600202006002072
:101A6C002806002028060020300600203006002022
:101A7C0038060020380600204006002040060020D2
:101A8C004806002048060020500600205006002082
:101A9C005806002058060020600600206006002032
:101AAC0068060020680600207006002070060020E2
:101ABC007806002078060020800600208006002092
:101ACC008806002088060020900600209006002042
:101ADC009806002098060020A0060020A0060020F2
:101AEC00A8060020A8060020B0060020B0060020A2
:101AFC00B8060020B8060020C0060020C006002052
:101B0C00C8060020C8060020D0060020D006002001
:101B1C00D8060020D8060020E0060020E0060020B1
:101B2C00E8060020E8060020F0060020F006002061
:101B3C00F8060020F806002000070020000700200F
:101B4C0008070020080700201007002010070020BD
:101B5C00180700201807002020070020200700206D
:101B6C00280700202807002030070020300700201D
:101B7C0038070020380700204007002040070020CD
:101B8C00480700204807002050070020500700207D
:101B9C00580700205807002060070020600700202D
:101BAC0068070020680700207007002070070020DD
:101BBC00780700207807002080070020800700208D
:101BCC00880700208807002090070020900700203D
:101BDC009807002098070020A0070020A0070020ED
:101BEC00A8070020A8070020B0070020B00700209D
:101BFC00B8070020B8070020C0070020C00700204D
:101C0C00C8070020C8070020D0070020D0070020FC
:101C1C00D8070020D8070020E0070020E0070020AC
:101C2C00E8070020E8070020F0070020F00700205C
:101C3C00F8070020F807002000080020000800200A
:101C4C0008080020080800201008002010080020B8
:101C5C001808002018080020200800202008002068
:101C6C002808002028080020FFFFFFFF00000200CA
:101C7C00A4080020990E0000E9000000C10000003B
:040000030000078969
:00000001FF
