:1000000000400020B50C0000F50C0000F70C0000CB
:1000100000000000000000000000000000000000E0
:10002000000000000000000000000000F90C0000CB
:100030000000000000000000FB0C0000FD0C0000B0
:10004000FF0C0000FF0C0000FF0C0000FF0C000084
:10005000FF0C000000000000FF0C0000FF0C00007F
:10006000FF0C0000FF0C0000FF0C0000FF0C000064
:10007000FF0C0000FF0C0000FF0C0000FF0C000054
:10008000FF0C0000FF0C0000FF0C0000FF0C000044
:10009000FF0C0000FF0C0000FF0C0000FF0C000034
:1000A000FF0C0000FF0C000000000000000000003A
:1000B0000000000000000000000000000000000040
:1000C00008B5054B054803331B1A062B03D9044B0F
:1000D000002B00D0984708BD3804002038040020C9
:1000E000000000000648074908B5091A8910CB0F1F
:1000F0005918491003D0044B002B00D0984708BD75
:1001000038040020380400200000000010B5074C1F
:100110002378002B09D1FFF7D3FF054B002B02D02A
:10012000044800E000BF0123237010BD3804002004
:1001300000000000C412000008B5094B002B03D0DA
:100140000848094900E000BF08480368002B02D1B5
:10015000FFF7C8FF08BD064B002BF9D09847F7E71B
:1001600000000000C41200003C0400203404002001
:1001700000000000144B002B00D1124B9D46402282
:1001800092029A1A924600218B460F461148124A53
:10019000121A00F0FDFE0D4B002B00D098470C4BBF
:1001A000002B00D098470020002104000D000B48D0
:1001B00000F098FE00F0C8FE2000290000F010F8C2
:1001C00000F098FE00000800004000200000000041
:1001D000000000003804002054040020150F000027
:1001E00090B589B002AF00F031F800F029FB00F0C3
:1001F0008DF800F08DFA3B1D181C00F0A1FA3B1D94
:100200001B68181C322100F07BFD031C7B613B1D29
:100210005B68181C322100F073FD031C3B617A6996
:100220003B69101C191C00F02FFB3B1D1A683B1D7D
:100230005C683B1D9B68034803490093231C00F046
:1002400017FAD8E7C50200002C12000080B500AFF5
:10025000A023DA05EC23DB000121D150A023DB052C
:10026000124A002199501249A123DB000122524277
:10027000CA500F49A223DB0001225242CA500C4A45
:100280000C4B1821D1500A4A0B4B1921D150084A66
:100290000A4B0B49D150064AA023DB000421D15060
:1002A000034B01221A60BD4680BDC04664070000B2
:1002B000002000400C05000014050000240500008B
:1002C0000050270080B582B000AF021CFB1D1A70E1
:1002D0000C4B01229A600B49FB1D1B780A4A8B507C
:1002E000C046084A8E235B00D358002BF9D0054A3C
:1002F0008E235B000021D150024B0122DA60BD4603
:1003000002B080BD002000401C05000080B500AF99
:10031000A023DA05E023DB001549D150A023DA053C
:10032000EF23DB001249D1501249134ACC235B045E
:100330008B50104A84235B000021D1500D4A8E233C
:100340005B000021D1500B4A92235B000021D15069
:10035000084AA123DB000021D150064A074B1E2189
:10036000D150044AA023DB000521D150BD4680BDF9
:100370000C06000000300040240500000C050000C1
:1003800080B586B000AFBA607B600F23FB18021CFB
:100390001A700E23FB180A1C1A7035490F23FB181C
:1003A0001A78B123DB00CA50314B01229A60304ADF
:1003B0008E235B000021D1502D490E23FB181B78A2
:1003C0002C4A8B50C0462A4A8E235B00D358002B00
:1003D000F9D0274A84235B000021D150244A8E2380
:1003E0005B000021D15000237B6103E0C0467B69A4
:1003F00001337B617B69092BF8DD1D4B01221A60FB
:1004000000233B6117E0C046194A84235B00D358A0
:10041000002BF9D0164A84235B000021D1503B69A0
:100420007A68D3181249A322D2008A58D2B21A701D
:100430003B6901333B61BB685A1E3B699A42E2DC6F
:100440000B4B01225A61C046094A84235B00D358F2
:10045000002BF9D0BB68013B7A68D3180449A3226A
:10046000D2008A58D2B21A70BD4606B080BDC046CE
:10047000003000401C05000080B586B000AFBA60B7
:100480007B600F23FB18021C1A700E23FB180A1C3A
:100490001A7020490F23FB181A78B123DB00CA50C9
:1004A0001C4B01229A601B4A8E235B000021D15015
:1004B00018490E23FB181B78174A8B50C046154A63
:1004C0008E235B00D358002BF9D000237B6116E00C
:1004D000104A8E235B000021D1500E497B697A6857
:1004E000D3181B781A1C0C4BCA50C046094A8E23DD
:1004F0005B00D358002BF9D07B6901337B617A69AB
:10050000BB689A42E4DB034B00225A61BD4606B049
:1005100080BDC046003000401C05000080B586B09C
:1005200000AF786039603B68002B03D17B683020D6
:10053000984755E000237B6100233B610023FB606B
:100540003B68002B04DA0123FB603B685B423B60A5
:1005500019E03A69131C9B009B185B003B613B68E8
:10056000181C0A2100F0B2FC0B1C1A1C3B699B18DA
:100570003B613B68181C0A2100F0C2FB031C3B6076
:100580007B6901337B613B68002BE2D1FB68002B68
:1005900002D07B682D20984715E03B69181C0A2182
:1005A00000F094FC0B1CDBB23033DAB27B68101C19
:1005B00098473B69181C0A2100F0A2FB031C3B6111
:1005C0007B69013B7B613B69002BE6D105E07B68E1
:1005D000302098477B69013B7B617B69002BF6D11A
:1005E000BD4606B080BDC04680B584B000AF78601F
:1005F0000023FB600EE0FA68131C9B009B185B0055
:10060000FB607B681B78303BFA68D318FB607B6823
:1006100001337B607B681B78642BECD1FB68181C72
:10062000BD4604B080BDC04680B584B000AF7860E0
:100630007B68002B01D1012316E00023FB607B685F
:10064000002B02DAFB680133FB6009E0FB68013331
:10065000FB607B68181C0A2100F052FB031C7B60C6
:100660007B68002BF2D1FB68181CBD4604B080BD2E
:100670000EB480B589B000AF78603023FB18FB6002
:10068000FB6ABB6139E0BB691B78252B05D0BB69D0
:100690001A787B68101C98472CE0FB681A1DFA60DA
:1006A0001B687B61BB690133BB61BB69181CFFF729
:1006B0009BFF031C3B617B69181CFFF7B5FF031C04
:1006C000FB6102E0BB690133BB61BB691B78642B32
:1006D000F8D105E07B6820209847FB690133FB6176
:1006E000FA693B699A42F5DB7A687B69101C191C30
:1006F000FFF714FFBB690133BB61BB691B78002B9B
:10070000C1D1BD4609B080BC08BC03B01847C04683
:1007100080B582B000AFFB1D57221A70FB1D192057
:1007200020210122FFF7A8FEFB1D08221A70FB1DE5
:10073000192023210122FFF79FFEBD4602B080BD94
:1007400080B586B000AF78601123FB18A8221A701C
:100750001123FB181A780823FB181920111C0622F4
:10076000FFF70EFE0823FB185B781B020822BA185D
:10077000127813431A111623FB181A801623FB183C
:100780001B881A1C80231B01134007D01623FB185B
:100790001622BA18128829490A431A800823FB181E
:1007A000DB781B020822BA18927813431A1114231B
:1007B000FB181A801423FB181B881A1C80231B01AA
:1007C000134007D01423FB181422BA1812881B49AF
:1007D0000A431A800823FB185B791B020822BA1807
:1007E000127913431A111223FB181A801223FB18D3
:1007F0001B881A1C80231B01134007D01223FB18EF
:100800001222BA1812880D490A431A801623FB18BF
:1008100000229A5E7B681A607B6804331422BA183F
:100820000021525E1A607B6808331222BA18002138
:10083000525E1A60BD4606B080BDC04600F0FFFFA4
:1008400080B582B000AF04237B6015E0A023DA05F9
:1008500001217B6899400B1C191CA323DB00D1509C
:10086000A023DB0501217A6891400A1C111C054A6E
:1008700099507B6801337B607B680F2BE6DDBD46BA
:1008800002B080BD0C05000080B586B000AF786076
:10089000396000F02DF80823FB187A681A600823E5
:1008A000FB183A685A600823FB18181C00F034F84B
:1008B0000823FB181B687B610823FB185B683B61FE
:1008C000A023DB0501217A6991400A1C111C074A0B
:1008D0009950A023DA0501213B6999400B1C191C92
:1008E000A123DB00D150BD4606B080BD0C05000041
:1008F00080B500AFA023DB050549E02212025A5063
:10090000A023DA05A123DB000249D150BD4680BDFA
:100910000C050000F01F000080B586B000AF7860C5
:100920007B681B687B617B685B683B617B69022B32
:1009300002DD02237B6105E07B69023302DA0223D8
:100940005B427B613B69022B02DD02233B6105E0D8
:100950003B69023302DA02235B423B613B690233AB
:10096000042B00D9BEE09A00634BD3181B689F4646
:100970007B690233042B00D9ABE09A005F4BD3189C
:100980001B689F460623FB600F23BB6013E00A230E
:10099000FB600E23BB600EE00423FB600F23BB60F3
:1009A00009E00923FB600E23BB6004E00523FB6024
:1009B0000F23BB60C0468CE07B690233042B00D957
:1009C00089E09A004E4BD3181B689F460B23FB60AF
:1009D0000D23BB6013E00A23FB600D23BB600EE018
:1009E0000923FB600D23BB6009E00823FB600D2396
:1009F000BB6004E00723FB600D23BB60C0466AE0D8
:100A00007B690233042B68D89A003E4BD3181B68CD
:100A10009F460523FB600E23BB6013E00C23FB60A5
:100A20000D23BB600EE00623FB600E23BB6009E0D4
:100A30000C23FB600F23BB6004E00423FB600E2348
:100A4000BB60C04649E07B690233042B47D89A005B
:100A50002D4BD3181B689F460723FB600F23BB60F9
:100A600013E00823FB600F23BB600EE00923FB604B
:100A70000F23BB6009E00A23FB600F23BB6004E087
:100A80000B23FB600F23BB60C04628E07B69023369
:100A9000042B26D89A001D4BD3181B689F460423AD
:100AA000FB600D23BB6013E00723FB600E23BB60DC
:100AB0000EE00523FB600D23BB6009E00823FB600B
:100AC0000E23BB6004E00623FB600D23BB60C04621
:100AD00007E0C04606E0C04604E0C04602E0C0466B
:100AE00000E0C0467B68FA681A607B680433BA6825
:100AF0001A60BD4606B080BD4412000058120000C6
:100B00006C1200008012000094120000A812000075
:100B100080B500AF00F034F8031E06D0124B134A24
:100B20001A60134B802212021A6000F069F8031E4B
:100B300005D08023DA05C123DB000121D15000F06C
:100B400085F8031E0ED00B4B1B68012B07D0094BF9
:100B5000094A1A60C046074B1B68012BFBD1074BA3
:100B6000C0221A60BD4680BD04050040DFFF07C0FB
:100B7000186C004000EC06407593000014EC064031
:100B800080B500AF1A4B1B68FF221340012B2AD1FE
:100B9000184B1B680F22134025D1174B1B68F022FE
:100BA000134006D1154B1B68F022134001D10123DD
:100BB0001AE0114B1B68F0221340102B06D10F4B8B
:100BC0001B68F022134001D101230DE00A4B1B6882
:100BD000F0221340302B06D1084B1B68F022134043
:100BE00001D1012300E00023181CBD4680BDC04692
:100BF000E00F00F0E40F00F0E80F00F0EC0F00F061
:100C000080B500AF0D4B1B68FF221340012B11D1A3
:100C10000B4B1B680F2213400CD10A4B1B68F022B0
:100C20001340402B06D1084B1B68F022134001D122
:100C3000012300E00023181CBD4680BDE00F00F03A
:100C4000E40F00F0E80F00F0EC0F00F080B500AF0B
:100C5000144B1B68FF221340012B1ED1124B1B6843
:100C60000F22134019D1114B1B68F0221340A02B07
:100C700006D10F4B1B68F022134001D101230DE078
:100C80000A4B1B68F0221340D02B06D1084B1B687F
:100C9000F022134001D1012300E00023181CBD46BF
:100CA00080BDC046E00F00F0E40F00F0E80F00F058
:100CB000EC0F00F003210A4802680A430260094869
:100CC00002680A4302600849084A094B9B1A03DD7F
:100CD000043BC858D050FBDCFFF71AFFFFF74AFA75
:100CE0002405004054050040D01200000000002000
:100CF00038040020FEE7FEE7FEE7FEE7FEE7FEE73A
:100D000003460B437FD4002243088B4274D303096C
:100D10008B425FD3030A8B4244D3030B8B4228D30D
:100D2000030C8B420DD3FF22090212BA030C8B4233
:100D300002D31212090265D0030B8B4219D300E0D3
:100D4000090AC30B8B4201D3CB03C01A5241830B58
:100D50008B4201D38B03C01A5241430B8B4201D308
:100D60004B03C01A5241030B8B4201D30B03C01A31
:100D70005241C30A8B4201D3CB02C01A5241830AAB
:100D80008B4201D38B02C01A5241430A8B4201D3DA
:100D90004B02C01A5241030A8B4201D30B02C01A04
:100DA0005241CDD2C3098B4201D3CB01C01A52416B
:100DB00083098B4201D38B01C01A524143098B42F4
:100DC00001D34B01C01A524103098B4201D30B01DD
:100DD000C01A5241C3088B4201D3CB00C01A524102
:100DE00083088B4201D38B00C01A524143088B42C7
:100DF00001D34B00C01A5241411A00D20146524160
:100E0000104670475DE0CA0F00D04942031000D37E
:100E10004042534000229C4603098B422DD3030AD3
:100E20008B4212D3FC22890112BA030A8B420CD3E3
:100E3000890192118B4208D3890192118B4204D30C
:100E400089013AD0921100E08909C3098B4201D38C
:100E5000CB01C01A524183098B4201D38B01C01AC6
:100E6000524143098B4201D34B01C01A524103093D
:100E70008B4201D30B01C01A5241C3088B4201D3EC
:100E8000CB00C01A524183088B4201D38B00C01A99
:100E90005241D9D243088B4201D34B00C01A524170
:100EA000411A00D20146634652415B10104601D3FD
:100EB0004042002B00D54942704763465B1000D387
:100EC000404201B5002000F00BF802BD0029F8D027
:100ED00003B5FFF715FF0EBC4243891A1847C046F9
:100EE0007047C04608B5011C00220020002300F016
:100EF00095F808BD10B50021041C00F005F9044B5D
:100F00001868C36B002B00D09847201C00F080F9B4
:100F1000C012000038B5094B094CE41AA41009D0DE
:100F2000084AA518AD00ED182B68013C9847043D10
:100F3000002CF9D100F074F938BDC046300400200F
:100F400034040020FFFFFF3F70B50D4E0D4D00240F
:100F5000AD1BAD1005D0A300F35801349847A5424E
:100F6000F9D100F057F9084E084D0024AD1BAD1023
:100F700005D0A300F35801349847A542F9D170BDBC
:100F80002804002028040020280400203004002029
:100F900070B583073FD0541E002A3BD0CEB2031C4D
:100FA000032503E0621E002C34D0141C01335A1EAA
:100FB00016702B42F6D1032C24D9FF250D402A02AE
:100FC00015432A0415430F2C11D9261C103E36094F
:100FD000013636011A1C9B19156055609560D56065
:100FE00010329342F8D10F221440032C0AD9261F45
:100FF000B6080136B6001A1C9B1920C29342FCD1D8
:1010000003221440002C05D0C9B21C1919700133F9
:10101000A342FBD170BD141C031CCCE7F8B54446B9
:101020005F4656464D469B462F4BF0B41C68A423A2
:101030005B00051CE0580E1C904600284BD043680E
:101040001F2B0DDC5C1C002D21D102339B00446062
:101050001E5000203CBC90469946A246AB46F8BDC7
:10106000224B002B3CD0C820400000E000BF0028ED
:1010700036D0A42200235200A15843600160A05042
:1010800040328350043283500124002DDDD09A0079
:1010900091468144424688214F467A50C4225200EC
:1010A0009046804442468739994012688A460A43EE
:1010B0009446424661461160842249465F4652008A
:1010C0008F50022DC1D1021C55468D32FF3211685E
:1010D0000D431560B9E7201C4D30FF30E050AEE7FE
:1010E00001204042B6E7C046C012000000000000E8
:1010F00008B5034B002B02D00248FFF7F3FE08BDF2
:1011000000000000150F0000F0B556465F464D4642
:101110004446F0B40E1C3C4B87B01B68019003930F
:101120004933FF330493A422039B52009F58002F9E
:101130004CD0049B984600239B46C4235B009C46EE
:10114000BC4463460293C6235B009A467C68BA445B
:10115000A5007D19013C08D526E06B1DFF331B68F7
:10116000B34204D0043D013C1ED3002EF5D17B6870
:101170006A68013BA3423AD05B466B60002AF1D01B
:101180007B68029999460123A34009680591194299
:1011900023D190477B684B45C5D143461B68BB4272
:1011A000C1D1043D013CE0D2184B002B0ED07B682E
:1011B000002B23D13B68002B24D04246381C1360FF
:1011C00000E000BF43461F68002FB6D107B03CBC0B
:1011D00090469946A246AB46F0BD51460968194271
:1011E00007D12B1C8433196801989047D2E77C60A3
:1011F000C4E72B1C843318689047CBE73B68B8469C
:101200001F1CE1E70023FAE7C01200000000000005
:10121000FEE7C046F8B5C046F8BC08BC9E4670471D
:10122000F8B5C046F8BC08BC9E467047583A202521
:10123000366420593A20253664205A3A20253664EF
:101240000A0D000070090000B8090000000A000043
:10125000460A00008C0A0000840900008E09000084
:1012600098090000A2090000AC090000CC090000A8
:10127000D6090000E0090000EA090000F4090000B6
:10128000120A00001C0A0000260A0000300A0000B2
:101290003A0A0000580A0000620A00006C0A0000C6
:1012A000760A0000800A00009E0A0000A80A0000DA
:1012B000B20A0000BC0A0000C60A00004300000099
:0812C000000000200000000006
:0812C800ACEEFF7F0100000005
:1012D00000000000EC02002054030020BC030020AA
:1012E00000000000000000000000000000000000FE
:1012F00000000000000000000000000000000000EE
:1013000000000000BC12000000000000000000000F
:1013100000000000000000000000000000000000CD
:1013200000000000000000000000000000000000BD
:1013300000000000000000000000000000000000AD
:10134000000000000000000000000000000000009D
:10135000000000000000000000000000000000008D
:10136000000000000000000000000000000000007D
:10137000000000000000000001000000000000006C
:101380000E33CDAB34126DE6ECDE05000B00000031
:10139000000000000000000000000000000000004D
:1013A000000000000000000000000000000000003D
:1013B000000000000000000000000000000000002D
:1013C000000000000000000000000000000000001D
:1016F0000000000000000000F110000039010000AF
:081700000D01000000000000D3
:0400000300000CB538
:00000001FF
